:020000040800F2
:1000000080170024AD020008AD210008B3030008EA
:10001000B3030008B30400083B2D000800000000F3
:10002000000000000000000000000000592300084C
:100030007905000800000000FF0200085B230008AB
:10004000C7020008C7020008C7020008C70200086C
:10005000C7020008C7020008C7020008C70200085C
:10006000C7020008C7020008C7020008C70200084C
:10007000C7020008C7020008C7020008C70200083C
:10008000C7020008C7020008C7020008C70200082C
:10009000C7020008C7020008C7020008C70200081C
:1000A000C7020008C7020008C7020008C70200080C
:1000B000C7020008C7020008C7020008C7020008FC
:1000C000C7020008C7020008C7020008C7020008EC
:1000D000C7020008C7020008C7020008C7020008DC
:1000E000C7020008C702000800000000C70200089D
:1000F000C7020008C7020008C7020008C7020008BC
:10010000C7020008C7020008C7020008C7020008AB
:10011000C7020008C7020008C7020008C70200089B
:10012000C7020008C7020008C7020008C70200088B
:10013000C7020008C7020008C7020008C70200087B
:1001400000000000000000000000000000000000AF
:10015000C7020008C7020008C7020008C70200085B
:10016000C7020008C7020008C7020008C70200084B
:10017000C7020008C7020008C7020008000000000C
:10018000C7020008C7020008C7020008C70200082B
:10019000C7020008C7020008C7020008C70200081B
:1001A000C7020008C7020008C7020008C70200080B
:1001B000C7020008C7020008C7020008C7020008FB
:1001C000C7020008C7020008C7020008C7020008EB
:1001D000C7020008C7020008C7020008C7020008DB
:1001E000C7020008C7020008C7020008C7020008CB
:1001F000C7020008C7020008C7020008C7020008BB
:10020000C7020008C7020008C7020008C7020008AA
:10021000C7020008C7020008C7020008C70200089A
:10022000C7020008C7020008C7020008000000005B
:10023000C7020008C702000800000000C70200084B
:10024000C7020008C7020008C7020008C70200086A
:10025000C7020008C7020008C7020008C70200085A
:10026000C7020008C7020008C7020008C70200084A
:10027000C7020008C7020008C7020008000000000B
:10028000C702000800000000C702000800000000CC
:1002900000000000C7020008DFF80CD000F0F0F802
:1002A00000480047A504000880170024064880473E
:1002B00006480047FEE7FEE7FEE7FEE7FEE7FEE74B
:1002C000FEE7FEE7FEE7FEE7F923000899020008D3
:1002D000EFF3108072B6704780F3108870473A4A87
:1002E0001368012B04D04FF001031360374A1060EC
:1002F000374A116037484FF0805101607047EFF383
:10030000108272B63048016851B34FF000010160AD
:100310002E48016891B1EFF309811EF0100F08BF5C
:1003200021ED108B21E9F00F4FF000041EF0100FAB
:1003300008BF012441F8044D0068016024490968A0
:10034000096808C9B1E8F00F002B18BFB1EC108B99
:1003500081F309884EF0100E002B18BF2EF0100EFE
:1003600082F310884EF0040E704719490860EFF3CD
:10037000148222F0040282F3148814494FF0000022
:10038000086011494FF00100086013484FF47F01E5
:10039000D0F8002041EA020101600E484FF0805180
:1003A00001600E480068006880F3088861B662B694
:1003B0007047EFF3098000B502F0A4FF5DF804EB8D
:1003C0004EF0040E70470000A40000249C0000249E
:1003D000A000002404ED00E020ED00E008ED00E0C6
:1003E0002DE9F05F0546002092469B46884606466A
:1003F000814640241BE0284641464746224600F0FD
:100400002FF853465A46C01A914110D31146184648
:10041000224600F016F82D1A67EB01084F462246D7
:100420000120002100F00DF817EB00094E41201EBD
:10043000A4F10104DFDC484631462A464346BDE8C4
:10044000F09F202A04DB203A00FA02F100207047D6
:100450009140C2F1200320FA03F319439040704702
:10046000202A04DB203A21FA02F00021704721FA09
:1004700002F3D040C2F12002914008431946704770
:10048000064C074D06E0E06840F0010394E80700E1
:1004900098471034AC42F6D3FFF702FFE04500085E
:1004A0000046000810B5FFF713FF03F065FF0020BA
:1004B00010BDFEE770B5B6B02B48016841F00201EF
:1004C0000160016801F002010191016841F002013F
:1004D0000160006800F002000190012402940025F0
:1004E000209502A800F052FB1F481030016841F02F
:1004F00010010160006800F0100001908020319030
:1005000002203290339434900724359431A9174E49
:10051000304600F033F840213191359431A930460E
:1005200000F02CF8134C124820604FF4E13060606A
:10053000A560E56025610C206061A561E56125622B
:100540006563204601F0E8FC00222520114600F0FA
:1005500039F9252000F028F92068016841F02001D0
:10056000016036B070BD0000E0440258000402583B
:1005700000100140A8100024704700002DE9F84F3A
:1005800000226D4C4FF0B04A4FF001094FF0030EBE
:100590004FF00F0809FA02F70B683B40BB4270D1DD
:1005A0004D68022D01D0122D12D1D50800EB850C1B
:1005B000DCF820605507ED0E08FA05FB26EA0B066D
:1005C000D1F810B00BFA05FB4BEA060BCCF820B0C3
:1005D000D0F800C055000EFA05F62CEA060C91F88A
:1005E00004B00BF0030B0BFA05FB4BEA0C0BC0F845
:1005F00000B0D1F804C0BCF1010F08D0BCF1020F6B
:1006000005D0BCF1110F02D0BCF1120F16D1D0F8F9
:1006100008C02CEA060CD1F80CB00BFA05FB4BEA2B
:100620000C0BC0F808B0D0F804C02CEA070C0F7906
:10063000C7F30017974047EA0C074760C768B743FE
:100640008E68AE403E43C6604D68ED006DD53B4DB3
:100650002E6846F002062E602D6805F00205009512
:1006600022F0030606F1B046D6F808C495072F0F0E
:1006700008FA07F52CEA050C314DA84202D10025F5
:100680002EE052E02F4DA84201D1012528E02E4D49
:10069000A84201D1022523E02C4DA84201D1032517
:1006A0001EE02B4DA84201D1042519E0294DA84296
:1006B00001D1052514E0284DA84201D106250FE0FF
:1006C000264DA84201D107250AE0254DA84201D1B7
:1006D000082505E0234DA84201D1092500E00A259F
:1006E000BD4045EA0C05C6F8085425689D434E6890
:1006F000F60300D51D43256065689D434E68B6032B
:1007000000D51D436560DAF800509D434E68F6023F
:1007100000D51D43CAF80050DAF804509D434E68D6
:10072000B60200D51D43CAF80450521C102AFFF42B
:1007300031AFBDE8F88F000080000058F444025843
:10074000000002580004025800080258000C025829
:10075000001002580014025800180258001C0258D9
:100760000020025800240258044840680449B0FBA5
:10077000F1F04FF47A71484370470000001000E038
:1007800000389C1C0648016841F0807101600548F2
:1007900000214160016841F00101016000207047C3
:1007A000FCED00E0001000E0002809DB012100F072
:1007B0001F0291404009800000F1E020C0F80011C4
:1007C00070470000F0B40D460D4B1B68C3F30223C5
:1007D000C3F10704042C00D90424191D072901D2F0
:1007E000002300E0DB1E012606FA04F1491E294021
:1007F00099409E40761E16403143F0BC02F09EBAEE
:100800000CED00E010B500F0F3FF084909684FF463
:10081000807292FAA2F201F47061B2FA82F2D140CF
:10082000034A515CC8400349086010BD184402588F
:10083000844400080000002410B500F093FF07492D
:100840000968102292FAA2F201F07001B2FA82F263
:10085000D140034A515CC84010BD000020440258FA
:100860008444000830B55F490A6802F00302096851
:10087000C1F305315B4B1B1D1B6803F01003594C82
:1008800014342468C4F3CC0414FB03F300EE103AD0
:10089000B8EE400ADFED540A524BB7EE001A10339F
:1008A000002A42D0514C012A73D0022A70D0B4FBE6
:1008B000F1F101EE901A1968B8EE612AC1F308014E
:1008C00001EE901AF8EE611A40EE201A31EE810A1C
:1008D00022EE000A1968C1F34621491C00EE901A65
:1008E000F8EE600A80EE201AFCEEC10AC0ED000AA4
:1008F0001968C1F30641491C00EE901AF8EE600A2F
:1009000080EE201AFCEEC10AC0ED010A1968C1F39D
:100910000661491C00EE901AF8EE600A80EE201A7B
:10092000BCEEC10A80ED020A30BD2E4C283C226884
:1009300095062F4A17D52468C4F3C104E240B2FBE0
:10094000F1F101EE901A1968B8EE612AC1F30801BD
:1009500001EE901AF8EE611A40EE201A31EE810A8B
:1009600022EE000AB6E7B2FBF1F101EE901A196827
:10097000B8EE612AC1F3080101EE901AF8EE611A8F
:1009800040EE201A31EE810A22EE000AA2E700E0D2
:1009900013E0B4FBF1F101EE901A1968B8EE612A88
:1009A000C1F3080101EE901AF8EE611A40EE201A28
:1009B00031EE810A22EE000A8CE70E4AB2FBF1F119
:1009C00001EE901A1968B8EE612AC1F3080101EE30
:1009D000901AF8EE611A40EE201A31EE810A22EEEA
:1009E000000A77E7284402580000003900093D005A
:1009F0000090D00340787D0130B55F490A6802F06D
:100A000003020968C1F305515B4B1B1D1B6803F40E
:100A10008073594C1C342468C4F3CC0414FB03F3D6
:100A200000EE103AB8EE400ADFED540A524BB7EE32
:100A3000001A1833002A42D0514C012A73D0022ADE
:100A400070D0B4FBF1F101EE901A1968B8EE612A8A
:100A5000C1F3080101EE901AF8EE611A40EE201A77
:100A600031EE810A22EE000A1968C1F34621491CC1
:100A700000EE901AF8EE600A80EE201AFCEEC10A31
:100A8000C0ED000A1968C1F30641491C00EE901A36
:100A9000F8EE600A80EE201AFCEEC10AC0ED010AF1
:100AA0001968C1F30661491C00EE901AF8EE600A5D
:100AB00080EE201ABCEEC10A80ED020A30BD2E4C39
:100AC000283C226895062F4A17D52468C4F3C10430
:100AD000E240B2FBF1F101EE901A1968B8EE612A1A
:100AE000C1F3080101EE901AF8EE611A40EE201AE7
:100AF00031EE810A22EE000AB6E7B2FBF1F101EE17
:100B0000901A1968B8EE612AC1F3080101EE901A33
:100B1000F8EE611A40EE201A31EE810A22EE000A48
:100B2000A2E700E013E0B4FBF1F101EE901A1968BE
:100B3000B8EE612AC1F3080101EE901AF8EE611ACD
:100B400040EE201A31EE810A22EE000A8CE70E4AAE
:100B5000B2FBF1F101EE901A1968B8EE612AC1F307
:100B6000080101EE901AF8EE611A40EE201A31EEFB
:100B7000810A22EE000A77E7284402580000003973
:100B800000093D000090D00340787D012DE9F84F29
:100B9000044600250026F64F2068DFF8D8830101BF
:100BA00004F1240000900DD5606EB0B1B0F5801F47
:100BB00018D0B0F5001F1ED0B0F5401F00D00125A1
:100BC00015B32E462088C00541D5606D05283BD25F
:100BD000DFE800F02328313B3B00386840F4003068
:100BE0003860EDE7386840F400103860201D01F0EF
:100BF000DFFA0546E4E7386840F080703860009816
:100C000001F040FB0546DBE7D8F80000616E20F4F8
:100C100040100843C8F80000D4E7386840F40030BA
:100C2000386012E0386840F400203860201D01F080
:100C3000BFFA054609E0386840F480003860009843
:100C400001F020FB054600E001255DB12E43208820
:100C5000800518D5A06D802833D00CDC18B340284F
:100C60000ED125E0D8F80000616D20F007000843A0
:100C7000C8F80000EBE7C02803D0B0F5807F00D0B3
:100C800001253DB32E432088DFF8EC92400533D593
:100C9000D4F8A400B0F5800F4BD024DCD0B3B0F56D
:100CA000001F26D13CE0386840F400303860E8E7A7
:100CB000386840F400203860201D01F079FA0546BC
:100CC000DFE7386840F480003860009801F0DAFA15
:100CD0000546D6E7D8F80000A16D20F4E07008437F
:100CE000C8F80000CFE7B0F5C00F03D0B0F5000F93
:100CF00000D0012535B32E432088000535D5D4F822
:100D0000A800B0F1007F5BD026DCE8B3B0F1807FB3
:100D100028D14CE0FFE7386840F400303860E9E75C
:100D2000386840F400203860201D01F041FA054683
:100D3000E0E7386840F480003860009801F0A2FADB
:100D40000546D7E7D9F80000D4F8A41020F46000D5
:100D50000843C9F80000CFE7B0F1407F03D0B0F1FD
:100D6000806F00D00125A5B32E43206880010AD5ED
:100D7000A06C30B1102838D020283BD0302800D0CB
:100D800001253DB32E4300E00CE02088C0044DD582
:100D9000E06DB0F5005F67D03FDCA0B3B0F5805FD9
:100DA00041D158E0386840F400303860DBE73868FB
:100DB00040F400203860201D01F0FAF90546D2E722
:100DC000386840F480003860009801F05BFA05460E
:100DD000C9E700E018E0D9F80000D4F8A81020F026
:100DE000E0600843C9F80000BFE7386840F400300D
:100DF0003860C6E7386840F400103860201D01F004
:100E0000D7F90546BDE721E05A48001F0168A26CEA
:100E100021F0300111430160B5E7B0F5405F03D028
:100E2000B0F5804F00D001253DB32E4320888004CB
:100E300035D5206EB0F5403F2FD027DC68B3B0F534
:100E4000803F3DD0B0F5003F26D142E0386840F405
:100E500000303860E8E7386840F400203860201D32
:100E600001F0A6F90546DFE7386840F480003860F5
:100E7000009801F007FA0546D6E7D8F80000E16DC2
:100E800020F4E0400843C8F80000CFE7B0F5802F19
:100E900003D0B0F5A02F00D001251DB32E4320882C
:100EA000400431D5D4F8AC00B0F1405F2AD022DC48
:100EB00040B3B0F1805F51D0B0F1005F21D162E06A
:100EC000386840F480103860201D01F071F9054643
:100ED000E3E7386840F400003860009801F0D2F988
:100EE0000546DAE7D8F80000216E20F4E020084338
:100EF000C8F80000D3E7B0F1804F03D0B0F1A04FA5
:100F000000D001259DB32E43208800040AD5E06E51
:100F100030B1B0F1805F4AD0B0F1005F4CD0012514
:100F200085B32E432068C0010AD5606C30B101281A
:100F300054D0022857D0032800D00125B5B32E4342
:100F40002068DFF838B040026CD50D48016841F4E4
:100F500080710160FFF708FC82465DE0386840F46C
:100F600080103860201D01F023F90546CAE713E020
:100F70002C44025850440258584402581044025815
:100F80000048025821E0386840F4000038600098BA
:100F900001F078F90546B5E7D9F80000D4F8AC10AF
:100FA00020F0E0400843C9F80000ADE724E03868CD
:100FB00040F400303860B3E7386840F4801038609F
:100FC000201D01F0F5F80546AAE7D8F80000E16E0B
:100FD00020F040500843C8F80000A3E7386840F408
:100FE00000303860AAE7386840F400103860201DEF
:100FF00001F0DEF80546A1E7FB480168626C21F0CC
:101000000301114301609BE7FFF7AEFBA0EB0A0071
:10101000642801D9032503E0F4480068C005F3D52E
:101020007DB12E432078DFF8C8A3C00766D0A06F3B
:10103000182861D05BDC80B308286AD010285AD108
:1010400070E0EB481C300068B4F8B01000F4407059
:1010500001F4407188420DD0E5481C30016821F44C
:101060004071026842F480320260026822F48032E9
:1010700002600160D4F8B000B0F5807F13D1FFF7B3
:1010800073FB82460AE0FFF76FFBA0EB0A0141F217
:101090008830814202D9032505E02DE0D4481C3078
:1010A00000688007EFD50DB12E43BBE7D4F8B00040
:1010B000C0F3012103290FD0DBF8000020F47C509D
:1010C000CBF80000CA481C300168B4F8B020C2F365
:1010D0000B0211430160A5E7DBF80010C54A21F4BB
:1010E0007C51104041EA1010CBF80000EAE72028BC
:1010F00002D0282800D00125EDB12E4320788007AA
:1011000037D5606F062831D2DFE800F0311E273175
:101110003131386840F480103860201D01F048F803
:101120000546E9E7386840F400003860009801F0AF
:10113000A9F80546E0E7DAF80000A16F20F03800D2
:101140000843CAF80000D9E7386840F480103860D6
:10115000201D01F02DF8054609E0386840F4000034
:101160003860009801F08EF8054600E0012565B171
:101170002E432078400726D5D4F8900006281FD2A9
:10118000DFE800F01F0C151F1F1FDAF80000616F69
:1011900020F007000843CAF80000EAE7386840F486
:1011A00080103860201D01F003F8054609E038681A
:1011B00040F400003860009801F064F8054600E053
:1011C00001258DB12E432078800620D5D4F88C00DF
:1011D000B0F1405F19D011DCB8B1B0F1805F27D019
:1011E000B0F1005F10D12CE0D9F80000D4F89010D5
:1011F00020F007000843C9F80000E4E7B0F1804F91
:1012000003D0B0F1A04F00D001251DB32E432078AC
:10121000400632D5D4F89800B0F5406F2BD023DCCF
:1012200048B3B0F5806F39D0B0F5006F22D13EE001
:10123000386840F400203860201D00F0B9FF0546F2
:10124000E3E7386840F080703860009801F01AF8E1
:101250000546DAE7DAF80000D4F88C1020F0E04018
:101260000843CAF80000D2E7B0F5805F03D0B0F5BC
:10127000A05F00D001251DB32E432078000632D593
:10128000D4F89C00B0F5C04F2BD023DC48B3B0F5A8
:10129000005F66D0B0F5804F22D1ECE0386840F4B2
:1012A00000203860201D00F083FF0546E3E7386822
:1012B00040F080703860009800F0E4FF0546DAE7FF
:1012C000D9F80000D4F8981020F4E0500843C9F889
:1012D0000000D2E7B0F5004F03D0B0F5204F00D0AA
:1012E0000125EDB32E43207800070BD5D4F88000FC
:1012F000B0F5805F77D0DAF8001021F44051014357
:10130000CAF800102078C0060BD5D4F89400B0F5C8
:10131000807F72D0D9F8001021F440710143C9F8E0
:101320000010206800030BD5D4F8A000F0B3B0F58E
:10133000803F7DD0B0F5003F00D00125BDB32E43E6
:101340002068400310D5D4F88400B0F5801F71D018
:10135000B0F5001F6FD0B0F5401F00D0012501E0AF
:1013600093E07FE0EDB32E432068C00307D5E06C27
:10137000C0B3B0F5803F74D00125EDB32E43206893
:10138000800007D5386840F080703860009800F021
:1013900079FF06432068800310D5E06F60B1B0F597
:1013A000807F71D0B0F5007F06D001E088E099E041
:1013B000B0F5407F00D00125DDB32E432068C00288
:1013C00007D5D8F80000216F20F000400843C8F886
:1013D00000002068C00016D5DBF8000020F4804033
:1013E0000CE097E0A0E05AE04C4402580048025854
:1013F00054440258FFFCFF0FA4E058E0D4F8B410A6
:101400000843CBF800002068800207D5D8F8000018
:10141000A16E20F080700843C8F8000020684000EA
:1014200011D5DBF8000020F40040CBF8000003E009
:101430004FE094E060E064E0DBF80000D4F8B8101E
:101440000843CBF800002068002806DA4948016804
:10145000226D21F040511143016086B30120BDE8A7
:10146000F88F66E0386840F400203860201D00F0F6
:101470009FFE054635E7386840F080703860009878
:1014800000F000FF05462CE764E0D9F80000D4F82E
:101490009C1020F460400843C9F8000023E700983E
:1014A00000F0F0FE386840F0807038602AE700985D
:1014B00000F0E8FE386840F08070386031E757E0AF
:1014C000386840F400203860201D00F071FE0546A9
:1014D00034E7386840F080703860009800F0D2FE41
:1014E00005462BE7D9F80000D4F8A01020F44030CE
:1014F0000843C9F8000023E7386840F4003038603A
:101500002DE7386840F400003860009800F0BAFE1B
:10151000054624E7DAF80000D4F8841020F44010DF
:101520000843CAF800001FE7386840F4003038600C
:1015300023E7386840F400103860201D00F038FEC2
:1015400005461AE70B480168E26C21F4803111432B
:10155000016014E7386840F4003038602CE7DAF8AE
:101560000000E16F20F440700843CAF8000025E74E
:10157000002074E74C4402582DE9F04704460E461B
:10158000DFF8CC81D8F8000000F00700B0420FD29D
:10159000D8F8000020F007003043C8F80000D8F861
:1015A000000000F00700B04202D00120BDE8F08743
:1015B0002078684F800705D53868E16820F00F0073
:1015C000084338602078C00770D03868A16820F4DC
:1015D0007060084338605F4960681839022808D095
:1015E00003280BD001280ED00968490710D4012028
:1015F000DCE7096889030BD40120D7E70968890172
:1016000006D40120D2E70968C90501D40120CDE73D
:10161000DFF84091A9F10809D9F8001021F007017D
:101620000143C9F80010FFF79FF80546606841F2D2
:10163000883A02280BD0032817D0012823D030E0A5
:10164000FFF792F8401B504501D90320AEE7D9F8C7
:101650000000C0F3C2000228F2D127E0FFF784F8AF
:10166000401B504501D90320A0E7D9F80000C0F382
:10167000C2000328F2D119E0FFF776F8401B50456D
:1016800001D9032092E7D9F80000C0F3C200012875
:10169000F2D10BE0FFF768F8401B504501D9032059
:1016A00084E7D9F8000010F0380FF3D1D8F8000023
:1016B00000F00700B0420ED9D8F8000020F0070073
:1016C0003043C8F80000D8F8000000F00700B0422E
:1016D00001D001206AE72078400705D538682169E4
:1016E00020F070000843386020781B49000705D5BA
:1016F0000868626920F07000104308602078C00616
:1017000005D50868A26920F4E060104308602078DD
:10171000800607D51049091D0868E26920F07000AD
:101720001043086000F064F839684FF4807292FA50
:10173000A2F201F47061B2FA82F2D140074A515C20
:10174000C840074908600020FFF71CF800202DE77B
:1017500000200052184402581C44025884440008D7
:101760000000002410B5FFF74DF808490968012270
:1017700092FAA2F201F00F01B2FA82F2D140044AC9
:10178000515CC8400349086010BD0000184402586D
:10179000844400080400002410B5FFF7E3FF074964
:1017A0000968102292FAA2F201F07001B2FA82F2F4
:1017B000D140034A515CC84010BD00001C4402588F
:1017C0008444000810B5FFF7CDFF074909684FF4BE
:1017D000807292FAA2F201F4E061B2FA82F2D14090
:1017E000024A515CC84010BD1C44025884440008A1
:1017F000F0B55C4800685D4D10F038015A4809D0DA
:10180000041108290ED05A4E10290DD018290DD0D8
:101810002046F0BD29688906FBD52968C1F3C101BE
:10182000C840F0BD2046F0BD3046F0BD4D491831EE
:101830000A6802F003020968C1F30511494B1C3321
:101840001B6803F00103474F24373F68C7F3CC07F9
:1018500017FB03F300EE103AB8EE400ADFED450A3D
:10186000404BB7EE001A20332AB3012A52D0022A85
:1018700064D0B4FBF1F001EE900A1868B8EE612A6A
:10188000C0F3080001EE900AF8EE611A40EE201A4B
:1018900031EE810A22EE000A1868C0F34620401C8F
:1018A00000EE900AF8EE600A80EE201ABCEEC10A43
:1018B00010EE100AF0BD2A68920617D52A68C2F306
:1018C000C102D040B0FBF1F001EE900A1868B8EE0A
:1018D000612AC0F3080001EE900AF8EE611A40EEAA
:1018E000201A31EE810A22EE000AD5E7B0FBF1F0B2
:1018F00001EE900A1868B8EE612AC0F3080001EE04
:10190000900AF8EE611A40EE201A31EE810A22EEBA
:10191000000AC1E7B4FBF1F001EE900A1868B8EED6
:10192000612AC0F3080001EE900AF8EE611A40EE59
:10193000201A31EE810A22EE000AADE7B6FBF1F083
:1019400001EE900A1868B8EE612AC0F3080001EEB3
:10195000900AF8EE611A40EE201A31EE810A22EE6A
:10196000000A99E7104402580090D003004402583E
:1019700040787D01000000392DE9F0470446FC4F16
:10198000FC4EFD4D2078C0075FD03868C0F3C20020
:1019900002281FD03868C0F3C200032804D1306881
:1019A00000F00300022815D06068B0F5803F19D020
:1019B000E8B1B0F5A02F23D0286820F4803028604B
:1019C000286820F480202860606870B3FEF7CCFEA1
:1019D000804626E02868800337D5606820BB012058
:1019E000BDE8F087286840F480302860ECE728687C
:1019F00020F480302860286820F480202860E3E705
:101A0000286840F480202860286840F480302860EE
:101A1000DAE7FEF7A9FEA0EB0800642801D903204D
:101A2000DEE728688003F4D50FE0FFE7FEF79CFEB1
:101A3000804607E0FEF798FEA0EB0800642801D975
:101A40000320CDE728688003F4D42078DFF82C93B6
:101A500080076FD538684FF47C3A10F0380F12D0F9
:101A60003868C0F3C200032802D1306880070AD06A
:101A7000E06890B3296821F0190101432960FEF75D
:101A800073FE804632E02868400701D5E06848B11F
:101A90002868E16820F0190008432860FEF764FE1A
:101AA000804609E001209BE7FEF75EFEA0EB080000
:101AB000022801D9032093E728684007F4D5D9F814
:101AC00000009AFAAAF220F47C312069B2FA82F27C
:101AD00090400143C9F800102CE018E0FEF744FEE6
:101AE000A0EB0800022801D9032079E72868400705
:101AF000F4D5D9F800009AFAAAF22169B2FA82F272
:101B000020F47C3091400843C9F8000012E02868B6
:101B100020F001002860FEF727FE804607E0FEF770
:101B200023FEA0EB0800022801D9032058E728680B
:101B30004007F4D42078C0065DD538684FF0F84AE5
:101B4000C0F3C200012813D03868C0F3C2000328D4
:101B500004D1306800F00300012809D0E069B0B377
:101B6000286840F080002860FEF7FEFD80461DE0FA
:101B70002868C00504D5E069802801D001202FE73E
:101B8000D9F800009AFAAAF2216AB2FA82F220F099
:101B9000F84091400843C9F800002CE0FEF7E4FD4E
:101BA000A0EB0800022801D9032019E72868C00526
:101BB000F4D5D9F800009AFAAAF2216AB2FA82F2B0
:101BC00020F0F84091400843C9F8000013E0FFE717
:101BD000286820F080002860FEF7C6FD804607E0F8
:101BE000FEF7C2FDA0EB0800022801D90320F7E6AA
:101BF0002868C005F4D42078000732D5DFF8749146
:101C0000606909F14C09B0B1D9F8000040F0010059
:101C1000C9F80000FEF7A8FD804607E0FEF7A4FD26
:101C2000A0EB0800022801D90320D9E6D9F800006A
:101C30008007F3D515E0D9F8000020F00100C9F8BD
:101C40000000FEF791FD804607E0FEF78DFDA0EB5A
:101C50000800022801D90320C2E6D9F80000800755
:101C6000F3D42078800628D5A06998B1286840F47C
:101C700080502860FEF778FD804607E0FEF774FD8F
:101C8000A0EB0800022801D90320A9E628688004F7
:101C9000F4D512E0286820F480502860FEF764FD37
:101CA000804607E0FEF760FDA0EB0800022801D99E
:101CB000032095E628688004F4D4207840077ED578
:101CC000DFF8BC80D8F8000040F48070C8F800004D
:101CD000FEF74AFD814607E0FEF746FDA0EB09004E
:101CE000642801D903207BE6D8F80000C005F3D5AD
:101CF000DFF88080A06808F14808012816D0E0B11C
:101D0000052827D0D8F8000020F00100C8F800000E
:101D1000D8F8000020F00400C8F80000A06841F2E4
:101D2000883A20B3FEF720FD814633E0D8F8000062
:101D300040F00100C8F80000F0E7D8F8000020F0FB
:101D40000100C8F80000D8F8000020F00400C8F82E
:101D50000000E3E7D8F8000040F00400C8F80000F5
:101D6000D8F8000040F00100C8F80000D6E716E0FF
:101D700010440258284402580044025804440258AF
:101D800000480258FEF7F0FCA0EB0900504501D9CD
:101D9000032025E6D8F800008007F3D50FE0FEF712
:101DA000E3FC814607E0FEF7DFFCA0EB09005045AD
:101DB00001D9032014E6D8F800008007F3D4606A44
:101DC000E8B33968C1F3C201032975D0022807D0EE
:101DD000286820F080702860FEF7C6FC04467EE08C
:101DE000286820F080702860FEF7BEFC074606E0F9
:101DF000FEF7BAFCC01B022801D90320F0E52868D1
:101E00008001F5D4306840F2F3318843E16A40EA5A
:101E10000110A16A08433060208E4FF6FF72616B9B
:101E2000401E491EC0F3080002EA41210843218FE9
:101E30004FF4FE02491E02EA0141084300E051E06E
:101E400094F83C10491E120202EA01610843274936
:101E50000860081D01684FF6F872A36C914392FA6E
:101E6000A2F2B2FA82F29340194301601F48001FA8
:101E70000168226C21F00C01114301600168626C61
:101E800021F0020111430160016841F480310160D9
:101E9000016841F400310160016841F48021016072
:101EA000016841F001010160286840F080702860FD
:101EB000FEF75AFC044607E016E0FEF755FC001B4F
:101EC000022801D903208BE528688001F5D509E0B7
:101ED000FEF74AFC001B022801D9032080E5286890
:101EE0008001F5D400207BE5012079E530440258DB
:101EF00010B5401EB0F1807F01D3012010BD4FF01E
:101F0000E02460610F21601700F018FF0020A0613D
:101F100007202061002010BD10B50446002C03D01E
:101F200094F8790010B107E0012010BD002084F87A
:101F30007800204600F028F8242084F879002068F2
:101F4000016821F001010160204600F029FB012811
:101F500018D0606B10B1204600F090FA20684168FC
:101F600021F4904141602068816821F02A0181605C
:101F70002068016841F0010101602046BDE8104081
:101F800000F0E0BA012010BD70472DE9F843044687
:101F90000D4691461E4694F87900202802D0022072
:101FA000BDE8F883B5B1B9F1000F13D094F878000B
:101FB000012811D0012084F878000027E76721204C
:101FC00084F87900FEF7D0FB8046A4F86090A4F86E
:101FD00062901CE00120E3E70220E1E7B4F8620030
:101FE000401EA4F86200002243468021204600964D
:101FF00000F071FE08B10320D2E7A068B0F5805F61
:1020000001D1206988B1216815F8010B0885B4F861
:1020100062000028E2D1002243464021204600967B
:1020200000F059FE40B10320BAE7216835F8020BF1
:10203000C0F308000885EAE7202078346070277034
:102040000020ADE710B586B02648016841F00101D7
:102050000160016801F001010091016841F0400157
:102060000160016801F040010091016841F0040144
:102070000160016801F004010091016841F0400134
:102080000160016801F040010091016841F04001E8
:102090000160006800F040000090012001900020E5
:1020A0000290039001A91048FEF768FA04200190FD
:1020B0000E4C01A92046FEF761FA4FF40051019140
:1020C0000B4801A9FEF75AFA0821019101A92046FF
:1020D000FEF754FA1021019101A92046FEF74EFAAD
:1020E00006B010BDE0440258000002580018025823
:1020F000000802582DE9F04186B02748016841F0F8
:1021000001010160016801F001010091016841F0E5
:1021100010010160016801F010010091016841F0B7
:1021200040010160016801F040010091016841F047
:1021300002010160006800F0020000904FF40044CA
:1021400001940120029003900220049001A9134DF4
:102150002846FEF713FA04260196114F01A93846C6
:10216000FEF70CFA019401A90E48FEF707FA4FF4A6
:102170008078CDF804800C4801A9FEF7FFF92C8384
:102180003E8308481830048007481830A0F80080C3
:1021900006B0BDE8F0810000E0440258000002589B
:1021A000001002580018025800040258704700003E
:1021B0002DE9F04104460027DFF8C480D8F800007C
:1021C000C043800709D02E4D283D286820F080604C
:1021D0002860FEF7C9FA064609E00120BDE8F08153
:1021E000FEF7C2FA801B022801D90320F6E728680F
:1021F0000001F5D4D8F80000216820F47C3040EAD2
:102200000130C8F80000A0884FF6FF72A168401E98
:10221000491EC0F3080002EA41210843A1894FF496
:10222000FE02491E02EA01410843217C1202491EB6
:1022300002EA016108431249103108601048001D8C
:102240000168626921F0C001114301600168A2695F
:1022500021F0200111430160286840F0806028606F
:10226000FEF782FA044606E0FEF77EFA001B02281B
:1022700001D90320B2E728680001F5D53846ADE75B
:10228000284402582DE9F04104460027DFF8C480B5
:10229000D8F80000C043800709D02E4D283D28689B
:1022A00020F080502860FEF75FFA064609E0012022
:1022B000BDE8F081FEF758FA801B022801D90320FF
:1022C000F6E728688000F5D4D8F80000218820F0CF
:1022D0007C7040EA0150C8F80000A0884FF6FF72F9
:1022E000A168401E491EC0F3080002EA41210843CC
:1022F000A1894FF4FE02491E02EA01410843217CF4
:102300001202491E02EA01610843124918310860AD
:102310001048001D0168626921F4406111430160A9
:102320000168A26921F4007111430160286840F03E
:1023300080502860FEF718FA044606E0FEF714FA0B
:10234000001B022801D90320B2E728688000F5D5D8
:102350003846ADE728440258704710B501F074F8CC
:1023600001F094FDBDE8104001F07CB830B59DB09F
:102370002048016821F00401016000241D480C3050
:10238000016841F440410160016801F4404101915C
:1023900001688904FCD50120029000040390059493
:1023A000099402200B900C9005210D91C0210E91F3
:1023B0000F9011900420109013940825129502A8F4
:1023C000FFF7DAFA00B1FEE73F20159003201690E0
:1023D00017941895402019901A9001011B911C9098
:1023E000042115A8FFF7C8F8002800D0FEE71DB0AB
:1023F00030BD00000C4802581C48016841F47001CF
:1024000001601B49086840F001000860184A00207C
:10241000103210600A68174B1A400A60144A1832CA
:102420001060121D1060121D1060114A28321060D9
:10243000121D1060121D1060121D1060121D106020
:10244000121D1060121D1060121D10600A6822F427
:1024500080220A6006496031086001200649086050
:10246000C0060249803908607047000088ED00E02E
:10247000004402587FEDF6EA0881005190F83410CC
:10248000C90706D001684A68836B22F400321A43F8
:102490004A6090F83410890706D501684A68C36B12
:1024A00022F480321A434A6090F83410490706D566
:1024B00001684A68036C22F480221A434A6090F84B
:1024C0003410090706D501684A68436C22F40042BB
:1024D0001A434A6090F83410C90606D501688A6824
:1024E000836C22F480521A438A6090F83410890673
:1024F00006D501688A68C36C22F400521A438A60C8
:1025000090F83410490611D501684A68036D22F429
:1025100080121A434A60016DB1F5801F06D101682F
:102520004A68436D22F4C0021A434A6090F834109E
:10253000090606D501684A68806D22F4002202432C
:102540004A607047F8B504460026E667FEF70CF9C6
:102550000746206800686FF07E4500070AD5002214
:102560003B464FF400112046009500F0B4FB08B143
:102570000320F8BD2068006840070AD500223B46CA
:102580004FF480012046009500F0A5FB08B1032020
:10259000F8BD202078346070A07026700020F8BD4F
:1025A0002DE9F04F87B00446802500210027FD4B20
:1025B0002068AE05A26AD4F808C0D4F81080D4F818
:1025C0001C904CEA080CD4F8148048EA09084CEA3C
:1025D000080C42EA0C02D0F800C0DFF8CC830CEA09
:1025E000080C4CEA020CC0F800C020684268D4F81D
:1025F0000CC022F4405242EA0C024260A0692268F8
:102600009A4203D0D4F820C04CEA0000D4F828C085
:10261000B44504D1D4E90B6C46EA0C063043966805
:10262000DFF888C306EA0C06064396602068C26A93
:10263000666A22F00F023243C262DD4E2068DD4A34
:10264000B0421CD1126802F03802182A11D005DC01
:102650004AB1082A09D0102A06D108E0202A0AD057
:10266000282A01D109E00125D8E00425D6E040253B
:10267000D4E00825D2E01025D0E02025CEE0CE4ED3
:10268000B04215D1126802F00702062A05D2DFE82F
:1026900002F0030507090B0D0025BFE00425BDE08E
:1026A0004025BBE00825B9E01025B7E02025B5E0BE
:1026B000C24EB04215D1126802F00702062A05D2B6
:1026C000DFE802F0030507090B0D0025A6E004254D
:1026D000A4E04025A2E00825A0E010259EE02025EA
:1026E0009CE0B74EB04215D1126802F00702062AEC
:1026F00005D2DFE802F0030507090B0D00258DE088
:1027000004258BE0402589E0082587E0102585E039
:10271000202583E0AB4EB04215D1126802F00702CB
:10272000062A7BD2DFE802F0030507090B0D00251E
:1027300074E0042572E0402570E008256EE0102565
:102740006CE020256AE0A04EB0421CD1126802F075
:102750003802182A11D005DC4AB1082A09D0102AFB
:102760005CD108E0202A0AD0282A57D109E00125A7
:1027700054E0042552E0402550E008254EE01025A5
:102780004CE020254AE0914EB04215D1126802F08B
:102790000702062A42D2DFE802F0030507090B0D03
:1027A00000253BE0042539E0402537E0082535E0E9
:1027B000102533E0202531E0854EB04215D1126856
:1027C00002F00702062A29D2DFE802F00305070912
:1027D0000B0D002522E0042520E040251EE0082501
:1027E0001CE010251AE0202518E0984216D1714A05
:1027F000121D126802F00702062A0FD2DFE802F06B
:10280000030507090B0D022508E0042506E0402515
:1028100004E0082502E0102500E02025DFF8B8914B
:10282000DFF890A198426B4E4FEA291BAAF1540A97
:102830007ED10020102D33D006DC022D16D0042DC1
:1028400017D0082D04D11EE0202D2BD0402D15D0FF
:102850000127002809D0D4F8048008EB4801814200
:1028600002D8B0EB083F20D90127ACE1FDF7E4FF27
:10287000EFE704A8FDF7F6FF0598EAE701A8FEF7E1
:10288000BBF80298E5E7DAF80000800606D5DAF82A
:102890000000C0F3C10029FA00F0DAE74846D8E7A3
:1028A0005846D6E74FF40040D3E7294600251029C3
:1028B00075D006DC022911D0042924D0082904D1BE
:1028C00051E020296CD0402936D00127434AA0F599
:1028D0004071914265D82168C86074E1FDF7ACFF92
:1028E000626A0023294636F81220FDF779FD6268F6
:1028F0000902030241EA10615008181869410023D7
:10290000FDF76EFDE2E704A8FDF7ACFF616A002366
:10291000059836F811201946FDF762FD6268090234
:10292000030241EA1061500818186941002300E0D1
:102930009BE0FDF755FDC9E701A8FEF75DF8616A68
:102940000023029836F811201946FDF749FD626808
:102950000902030241EA1061500818186941002376
:10296000FDF73EFDB2E7DAF8000080063BD5DAF865
:1029700000000023616AC0F3C10036F81120194637
:1029800029FA00F0FDF72CFD0902020241EA10616C
:102990004FEA5800101842466941002320E037E012
:1029A0004BE060E0000C0058F369FFCFFFF4FF112B
:1029B00000100140544402580044004000480040C8
:1029C000004C0040005000400014014000780040DE
:1029D000007C0040944400080090D003FFFC0F00EE
:1029E000FDF7FEFC72E7606A0023194636F81020F6
:1029F0004846FDF7F5FC0902020241EA10614FEA80
:102A000058001018424669410023FDF7E9FC5DE7D4
:102A1000606A0023194636F810205846FDF7E0FC9E
:102A20000902020241EA10614FEA580010184246BA
:102A300069410023FDF7D4FC48E7606A002319468A
:102A400036F810204FF40040FDF7CAFC09020202DC
:102A500041EA10614FEA58001018424669410023CC
:102A6000FDF7BEFC32E70127ADE0E3694FF4004219
:102A700093426ED1082D55D005DC9DB1012D20D09B
:102A8000042D06D12CE0102D73D0202D7ED0402DAA
:102A900037D0012721F00F00C1F34201084321681C
:102AA000C86090E0FEF778FE616A36F81110B0FB5E
:102AB000F1F04100606801EB5001B1FBF0F081B230
:102AC000E8E7FEF77FFE616A36F81110B0FBF1F01F
:102AD0004100606801EB5001B1FBF0F081B2D9E731
:102AE00004A8FDF7BFFE616A059836F81110B0FB27
:102AF000F1F04100606801EB5001B1FBF0F081B2F0
:102B0000C8E701A8FDF778FF616A029836F811104E
:102B1000B0FBF1F04100606801EB5001B1FBF0F057
:102B200081B2B7E7DAF80000800613D5DAF80000C2
:102B3000C0F3C10029FA00F9606A36F81000B9FB49
:102B4000F0F04100606801EB5001B1FBF0F081B2A0
:102B5000A0E728E0606A36F81000B9FBF0F0410009
:102B6000606801EB5001B1FBF0F081B292E700E048
:102B70000CE0606A36F81000BBFBF0F041006068C2
:102B800001EB5001B1FBF0F081B283E7606A36F8E7
:102B90001000B2FBF0F04100606801EB5001B1FBA6
:102BA000F0F081B276E7082D55D005DC7DB1012D1E
:102BB0001DD0042D06D12AE0102D72D0202D7DD0FD
:102BC000402D36D0012707B03846BDE8F08FFEF71C
:102BD000E3FD616A36F81110B0FBF1F1606801EBBA
:102BE0005001B1FBF0F0216880B2C860EBE7FEF75E
:102BF000E9FD616A36F81110B0FBF1F1606801EB94
:102C00005001B1FBF0F0216880B2C860DBE704A896
:102C1000FDF728FE616A059836F81110B0FBF1F156
:102C2000606801EB5001B1FBF0F0216880B2C86030
:102C3000C9E701A8FDF7E0FE616A029836F81110B5
:102C4000B0FBF1F1606801EB5001B1FBF0F02168DD
:102C500080B2C860B7E7DAF80010890612D5DAF852
:102C60000010C1F3C10129FA01F9616A36F81110A7
:102C7000B9FBF1F2616802EB5102B2FBF1F189B2EA
:102C8000C160A0E7616A36F81110B9FBF1F2616822
:102C900002EB5102B2FBF1F189B2C16093E700E0AF
:102CA0000CE0616A36F81110BBFBF1F2616802EBCF
:102CB0005102B2FBF1F189B2C16084E7616A36F872
:102CC0001110B2FBF1F2616802EB5102B2FBF1F1BB
:102CD00089B2C16077E72DE9F04104460E461746F8
:102CE0009846069D1DE0681C1BD02DB1FDF73CFDEC
:102CF000A0EB0800A84214D92068016821F4D07123
:102D000001602068816821F001018160202084F841
:102D1000790084F87A00002084F878000320BDE868
:102D2000F0812068C06936EA000004D00020B84273
:102D3000D9D00020F3E70120F9E7FEE70907090EE3
:102D4000002804DB00F1E02080F80014704700F058
:102D50000F0000F1E02080F8141D7047002807D014
:102D60000F4910F0FF0F05D0C0B2085C401C70473F
:102D70000020704710F47F4F04D0C0F30720085C98
:102D80000930704710F47F0F04D0C0F30740085C8F
:102D90001130704701EB1060007819307047000067
:102DA000AC44000802E008C8121F08C1002AFAD18A
:102DB00070477047002001E001C1121F002AFBD1BB
:102DC0007047000003480168814201D0012070472C
:102DD00000207047840000242DE9FC411F46044672
:102DE000DDE90A65DDE9083104F1140040600060A6
:102DF0001C346260A760E36021610A462321184603
:102E000000F03CFCD4E903010F4B4218121FD4E937
:102E1000010100F0F9FA2060A67666760020E061F4
:102E200025626562606120766065A0651C3C074A8A
:102E3000234621460090019004F1440001F0B4F8CB
:102E40000020BDE8FC810000FD3B0008013E0008B9
:102E500010B5029C24F001044472C1610262002199
:102E60008162436200EBC102143252601260491C5D
:102E70000129F7DB10BD10B5002200EBC2011431AF
:102E8000D1E900436360D1E90034236049600960FF
:102E9000521C012AF1DB10BD38B513A000F01EFB57
:102EA0001EA000F01BFB26A000F018FB04202B49FD
:102EB000002241F28833009029A001F04DF82C4CFB
:102EC000206008B101F086F806202A49002200900F
:102ED0004FF47A7328A001F03FF8606008B101F068
:102EE00079F8002038BD0000D5E2CAC7D2BBB8F6D9
:102EF0005BD2B0BBF05D2D53544D33324837343381
:102F0000CCF4D5BDD5DF2D525454C8EDBCFEB6A8C7
:102F1000CAB1C6F7CAB5D1E9A3A10A00B6A8CAB119
:102F2000C6F7BBD8B5F7BAAFCAFD31D6BBD6B4D059
:102F3000D0D2BBB4CEBECDB1BBCFFABBD90A000054
:102F4000B6A8CAB1C6F7BBD8B5F7BAAFCAFD32D476
:102F5000F2D1ADBBB7D6B4D0D00A0000CD43000843
:102F60007377746D72315F63616C6C6261636B0067
:102F700008000024294400087377746D72325F637F
:102F8000616C6C6261636B0010B500F0E7F8BDE83E
:102F90001040FFF781BF000030B5134C4168226834
:102FA0001144884202F108030DD04D885DB965686F
:102FB000A94208D0A5688D4200D1A0604D68456047
:102FC000851A4968CD508168114481420BD04D88E3
:102FD000002D08D1A568854200D1A16044684C60ED
:102FE000891A4068C15030BD200000242DE9FF4FF0
:102FF000DDE90DB60F9D6C0602D5DFF814A103E0E4
:10300000DFF80CA1AAF1110AEC0601D525F00105A3
:10301000EC0702D04FF0300901E04FF02009002703
:10302000AC070BD5002A02DA2D27524206E06C07C6
:1030300001D52B2702E02C0700D520270024EE46DF
:103040007AB930228DF8002001240CE00A2B15D02B
:1030500002F00F081209A446641C1AF808800EF842
:103060000C80002AF2D1B44200DD2646ABEB06020A
:103070004FF0200315F0110F09D016E04FF00A0CA5
:10308000B2FBFCF80CFB1828B2FBFCF2E3E73FB103
:10309000002A05DD521E03E0884200D80370401C60
:1030A000B2F1000CA2F10102F6DC27B1884201D88E
:1030B0000770521E401CED0605D508E0884201D875
:1030C00080F80090401C151EA2F10102F6DC3027AA
:1030D00003E0884200D80770401C3546761EA542A2
:1030E000F7DC05E0884202D81EF804500570401C49
:1030F000251EA4F10104F5DC03E0884200D803702A
:10310000401C141EA2F10102F7DC04B0BDE8F08FF0
:10311000BD4500081CB5142002210022CDE9001095
:103120000B02044904A000F042FDBDE81C4000F081
:1031300033BE0000892F00086D61696E0000000039
:1031400070B5044C044D02E020688047241DAC4259
:10315000FAD370BDD4450008D845000870B5044CBA
:10316000044D02E020688047241DAC42FAD370BDB4
:10317000D8450008DC45000810B5FDF7A9F8044A59
:103180005188491C5180BDE81040FDF7A5B80000EA
:103190007800002410B5FDF79BF8094A5188491EB4
:1031A00009B25180002907DC00215180FDF794F815
:1031B000BDE8104000F002BBBDE81040FDF78CB840
:1031C0007800002470B5002833D01A4D2968884251
:1031D0002FD3696888422CD2A0F10C0416484FF016
:1031E000FF3100F0A6FB60884FF4F55610B120883F
:1031F000B04208D011A000F071F9238816A06288AF
:10320000214600F06BF9002060802680A868844287
:1032100000D2AC6029686068611A401A2969081AEE
:1032200028612046FFF7B8FEBDE87040024800F074
:1032300062BB70BD2000002420130024746F206640
:10324000726565206120626164206461746120623E
:103250006C6F636B3A0A00006D656D3A203078251B
:103260003038782C207573656420666C61673A206D
:1032700025642C206D6167696320636F64653A2063
:103280003078253034780A0000487047A8000024C0
:1032900000487047A810002410B5FFF767F8FEF744
:1032A000A7FA4FF47A71B0FBF1F0FEF721FEFEF7BA
:1032B00021FFFDF7FFF8FEF7C5FEFFF741FFFFF71F
:1032C000E7FF0446FFF7E0FF2146BDE8104000F0AD
:1032D000DBBB000070B50446FFF74EFF4FF47A7574
:1032E00006E00748012221462B46641CFEF74DFEEE
:1032F00020780028F5D1BDE87040FFF74BBF0000F3
:10330000A810002410B5044617480168002903D00E
:1033100020468847002826D0E16914A000F0DEF896
:10332000A16916A000F0DAF8616918A000F0D6F8DB
:1033300021691AA000F0D2F8E1681CA000F0CEF8D4
:10334000A1681EA000F0CAF8616820A000F0C6F8CD
:10335000216822A000F0C2F800F018FD014623A069
:1033600000F0BCF8FEE710BD980000247073723ABC
:10337000203078253038780A000000002070633A49
:10338000203078253038780A00000000206C723A2E
:10339000203078253038780A000000007231323A47
:1033A000203078253038780A000000007230333A37
:1033B000203078253038780A000000007230323A28
:1033C000203078253038780A000000007230313A19
:1033D000203078253038780A000000007230303A0A
:1033E000203078253038780A000000006861726467
:1033F000206661756C74206F6E20746872656164FC
:103400003A2025730A00000070B50646121D22F00E
:103410000700A0F14405284600220A4C40F822404B
:10342000521C112AFAD3416200218162C1620163F8
:1034300041638363C6634FF0807202640160284673
:1034400070BD0000EFBEADDE10B5FCF741FF044AD1
:103450001178491C1170BDE81040FCF73DBF000019
:103460001C00002410B5FCF733FF044A1178491EF4
:103470001170BDE81040FCF72FBF00001C000024B5
:103480002DE9F04105460E461446304600F097FC03
:1034900006F1140714B1012C1DD104E03946284669
:1034A00000F043F817E02C680DE0A4F1140096F842
:1034B000351090F83520914204D21430394600F08E
:1034C00034F802E02468AC42EFD1AC4203D1394673
:1034D000284600F02AF80020BDE8F0810FB408B5B6
:1034E00003AB00937F210548029A00F0F5FD0348E5
:1034F000FFF7F0FE01B05DF814FB0000A0120024FD
:103500000268516002680A600160486070470268A2
:10351000516002680A60016048607047026851604B
:1035200002680A6001604860704742681160426842
:103530004A604160086070470168814201D1012002
:103540007047002070470168814201D10120704717
:1035500000207047D0E900215160D0E900121160CD
:10356000406000607047D0E900215160D0E900124E
:1035700011604060006070472DE9F047002809D0D5
:10358000C01C20F003053B4EF068854204D90020A2
:10359000BDE8F0870020FBE70C2D00D20C25364853
:1035A0004FF0FF3100F0C5F9B7683168781AD6F8E6
:1035B0000CC0ACEB050356E00C1862888ABB62684D
:1035C000121A0C3AAA424DD3626805F118034FF063
:1035D00001094FF4F558121A0C3A9A4222D34319B2
:1035E0000C33CA18A2F800804FF0000AA2F802A01B
:1035F000D4F804A0C2F804A090606360A4F802901C
:103600000CF10C0C5068604502D001F108028350A7
:10361000306928440C303061726982420ED2706188
:103620000CE01FE0A4F80290621A6068801A326908
:10363000104430617269824200D27061A4F8008047
:10364000BC4203D008E040680844B060B0684288DB
:1036500012B172689042F6D1074800F04CF904F1BB
:103660000C0095E760688342A6D8034800F043F950
:1036700000208DE7200000242013002410B503460D
:10368000CCB2042A15D3810713D1014644EA04239E
:1036900043EA034305E00B604B608B60CB60103165
:1036A000103A102AF7D201E008C1121F042AFBD2F7
:1036B0000B46E1B201E003F8011B521E541CFAD183
:1036C00010BD2DE9F04106460F46304600F03EF8A9
:1036D0000546E868FFF750FF0446ACB126720020AB
:1036E000607208223946204600F0BAF9FCF7F0FD76
:1036F0000646281D04F10C01FFF702FF3046FCF7D7
:10370000EBFD2046BDE8F0810020FBE770B50446E4
:10371000FCF7DEFD054604F10C00FFF71BFF284611
:10372000FCF7DAFD2046BDE87040FFF74BBD70B5F1
:103730000446FCF7CDFD054604F10C00FFF70AFF37
:103740002846BDE87040FCF7C7BD00000021074ACD
:1037500002EB01131B78834202D102EB0110704788
:10376000491C0429F4DB00207047000038000024C5
:103770002DE9F04104460D4617462846FFF7E6FFBF
:10378000064645F08000207208223946204600F0A7
:1037900067F9FCF79DFD0546301D04F10C01FFF7AC
:1037A000AFFE2846BDE8F041FCF796BD007A000662
:1037B00001D50120704700207047000070B5FCF76C
:1037C00087FD0546174C608820B12846BDE870404B
:1037D000FCF782BDA068FFF7C1FA421E124850F8FC
:1037E000321014396068814216D0227061600F4A2D
:1037F000127842B11C311C30FCF771FD2846BDE83F
:103800007040FCF769BD1C311C30FCF768FD284690
:10381000BDE87040FCF760BD2846BDE87040FCF78D
:103820005BBD000078000024401300241C0000242D
:1038300010B50446FCF74CFD024614F8340F20F096
:103840000F00401C20706078343C0A4901EBC00135
:1038500004F114004B6818604B68436048600160D5
:103860000548A16B836819438160BDE8104010468C
:10387000FCF732BD401300247800002470B50546E3
:10388000FCF726FD014605F11404D4E90020506040
:10389000D4E9000210606460246095F835000A4A9B
:1038A00002EBC0000268824201D1012000E000204A
:1038B00020B10648AB6B82689A438260BDE87040D5
:1038C0000846FCF709BD00004013002478000024DE
:1038D0002DE9F041054616461F460A4601212846B5
:1038E000FFF746FF2C46143464602460AE836F7289
:1038F0000020BDE8F08170B504460025FCF7E8FC27
:10390000064604F11400FFF717FE40B1A08B401CDF
:10391000A0833046FCF7E0FC012D06D007E060698B
:10392000143800F015FA0125F3E7FFF747FF0020F0
:1039300070BD73B50446FCF7CBFC0646A08B28B1DE
:10394000401EA0833046FCF7C7FC21E0019808B375
:1039500000F01CFA05460020286304F11400627A86
:103960002946FFF78DFD0198002809DD05F1440087
:103970000021044601AA00F0D5FA204600F02AFBF7
:103980003046FCF7A9FCFFF719FF286B002800D18F
:1039900000207CBD3046FCF79FFC6FF001007CBD31
:1039A00008B509A0FFF79AFD0AA0FFF797FD0323CA
:1039B00011A019460022009012A0FFF78FFDBDE86C
:1039C000084018A0FFF78ABD0A205C207C202F0A3F
:1039D000000000002D205254202D202020202054B3
:1039E0006872656164204F7065726174696E6720EA
:1039F00053797374656D0A004A756C203331203237
:103A000030323000202F207C205C202020202025F8
:103A1000642E25642E2564206275696C64202573EC
:103A20000A0000002032303036202D20323031386C
:103A300020436F70797269676874206279207274AC
:103A40002D746872656164207465616D0A00000000
:103A5000014600E0491C0A78002AFBD1081A704789
:103A600010B5002A07D0034611F8014B03F8014BAB
:103A700014B1521EF8D110BD002101E003F8011B62
:103A8000521EFBD110BD000070B505460A46E81C69
:103A900020F0030122F00303182B21D9A3F118040D
:103AA0008C421DD3114C5A1A183AE26021604FF42F
:103AB000F5530B800C324A600020886048804868CB
:103AC00008446060038001214180426082600023DD
:103AD0000948012206A1FFF7FBFE2068A06070BD27
:103AE0002946BDE8704005A0FFF7F8BC200000247F
:103AF0006865617000000000201300246D656D2072
:103B0000696E69742C206572726F722062656769D4
:103B10006E206164647265737320307825782C2080
:103B2000616E6420656E64206164647265737320E5
:103B3000307825780A00000010B50A4B00245C801C
:103B40000020094A02EBC00149600960401C0828B6
:103B5000F8DB072018705C609C6002480C30406005
:103B6000006010BD780000244013002410B5074CFD
:103B7000A068FFF7F3F8401E054951F830001438EB
:103B80006060BDE810401C30FCF7EFBB78000024FB
:103B9000401300240020044A02EBC0014960096080
:103BA000401C0028F8D070479000002470472DE991
:103BB000FF478046894692461D46DDE90C67002096
:103BC0004146FFF77EFD044620000FD02846FFF750
:103BD000D3FC68B18DE8E10053464A464146204691
:103BE000FFF7FAF8204604B0BDE8F0870020FAE7B6
:103BF0002046FFF78BFD0020F5E7000070B5134865
:103C00000468FCF765FB05462046FFF737FE0420F5
:103C100084F8340004F1440000F0B6F92046FFF7C0
:103C2000C5FD012801D1206F58B1094804F11401E4
:103C3000FFF76DFC2846FCF74FFBBDE87040FFF72F
:103C4000BDBD2046FFF773FDF4E700007C000024B3
:103C50008400002400F002F8FCE7000070B527E0C3
:103C6000FCF736FB0646FFF7ADF868B31948046861
:103C7000A4F11405D4E900104860D4E900010860FB
:103C800064602460FFF778FA296F09B128468847F5
:103C90002846FFF78BFD01280FD0FFF77BFA30464F
:103CA000FCF71AFBA86AFFF78DFA2846FFF72EFDEE
:103CB000FFF788F80028D3D170BDFFF76BFA3046C4
:103CC000BDE87040FCF708BB3046BDE87040FCF72B
:103CD00003BB0000840000241FB520200A4B0721ED
:103CE000C200CDE90210084809A1CDE90032074A17
:103CF0000023783800F010F804B003487838BDE8A5
:103D0000104000F049B80000A0110024553C000804
:103D10007469646C650000002DE9FF5F8146884688
:103D200092469B46DDE90E76DDE9105400214246BD
:103D30004846FFF71DFDCDE90076CDE902545B460C
:103D4000524641464846FFF747F804B0BDE8F09FA9
:103D500070B5044694F8340000F00F00022802D039
:103D60004FF0FF3070BDFCF7B3FA054604F11400C4
:103D7000FFF7F9FB04F1440000F096F92846FCF740
:103D8000ABFA2046FFF754FD002070BD01480068E3
:103D9000704700007C00002410B5343081784170F9
:103DA00001228A404260022100F83419FFF7D0FF57
:103DB000FFF7ECFF08B1FFF701FD002010BD70B563
:103DC000044694F8340000F00F00012802D04FF0B0
:103DD000FF3070BDFCF77CFA054694F8340020F003
:103DE0000F00801C84F834002046FFF747FD04F1E3
:103DF000440000F059F92846FCF76EFA002070BD27
:103E000010B504466FF00100206304F11400FFF7C1
:103E1000AAFB2046FFF70CFDBDE81040FFF7CEBC23
:103E200070B5FCF755FA06461348046894F8340058
:103E300000F00F0001281AD1D4E90501884216D0FC
:103E400004F114000546FFF78EFB94F835000B498A
:103E500001EBC00041680D60416869604560286001
:103E60003046FCF739FAFFF7A9FC002070BD304658
:103E7000FCF732FA002070BD7C00002440130024BF
:103E800001480068704700001800002410B5094977
:103E90000868401C0860FFF779FF016C491E016447
:103EA00019B9C16B0164FFF7BBFFBDE8104000F01A
:103EB00003B800001800002470B5FFF7E1FF0646C4
:103EC000FCF706FA054620E015480468143C6FF03C
:103ED0000041A06A301A88421CD22046FEF7CBFF70
:103EE000D4E907108847FFF7CBFF0646607A8107C1
:103EF00008D5C10706D020F001006072204600F00E
:103F000069F802E020F0010060720548FFF71BFB32
:103F10000028D9D02846BDE87040FCF7DDB9000084
:103F200090000024002909D0012904D0022908D0DA
:103F300003290FD10AE0406A10600BE0116841626A
:103F400008E0417A21F00201417203E0417A41F038
:103F500002014172002070472DE9F8430E461746D2
:103F60009846089D01460920FFF7ABFB04464CB17B
:103F700043463A46314620460095FEF769FF204603
:103F8000BDE8F8830020FBE770B50546FCF7A0F913
:103F900004462846FEF76FFF2046FCF79DF92846A9
:103FA000FFF7C5FB002070BD2DE9F8430746154615
:103FB0001E46DDE908840A4638460921FFF7D8FB8A
:103FC00043463246294638460094FEF741FFBDE895
:103FD000F88300002DE9F8430446FCF779F905461B
:103FE0002046FEF748FF607A20F001006072284604
:103FF000FCF772F9FFF744FF616A0844A062FCF71E
:1040000067F90746DFF89CC0CDF800C000226E4675
:104010000CEBC20045680DE00068A0EBC201A36A8A
:104020004969994204D0C91A6FF00043994205D3F7
:1040300046F8220056F82200A842EDD12AB156F8DF
:1040400022100831531C46F82310521C002ADFD0DE
:104050001448001FD0F8008008F10108C0F8008063
:10406000009804F11401FFF759FA02250EE05FEA07
:1040700088700DD1C5F1010004EBC00156F8200095
:104080001431FFF74BFA4FEA98086D1C012DEED959
:10409000607A40F0010060723846FCF71DF900209C
:1040A000BDE8F8839000002470B50446607AC0072C
:1040B0000ED0FCF70DF905462046FEF7DCFE28463B
:1040C000FCF70AF9607A20F001006072002070BDF0
:1040D0004FF0FF3070BD00002DE9FF4F83B08246E6
:1040E0000AEB01077F1E5446A74201D24FF0FF376B
:1040F0004FF020094FF0250B12E1252804D0BC42D7
:1041000000D82070641C08E100250599491C059120
:1041100008782D2814D02B2815D0202816D0232835
:1041200017D0302818D04FF0FF384646059A12783D
:10413000303A0A2A13D205A800F033F906461AE0ED
:1041400045F01005E1E745F00405DEE745F0080518
:10415000DBE745F02005D8E745F00105D5E72A283B
:1041600009D1491C0591069840C80690002E02DA34
:10417000764245F01005059801782E2918D1401C8B
:1041800005900178A1F130020A2A04D205A800F0B6
:1041900008F9804607E02A2905D1401C05900698B9
:1041A00050F8048B0690B8F1000F01DA4FF00008C8
:1041B0000021059A1078682801D06C2802D10146A8
:1041C000521C05920A23059800786F2871D00CDCE8
:1041D000632820D004DC25286CD058280DD187E036
:1041E000642801D0692808D186E0702863D073283C
:1041F0002FD0752871D078287CD0BC4201D884F8A3
:1042000000B0641C05990878002868D0BC4200D82A
:104210002070641C81E0E80605D507E0BC4201D8A7
:1042200084F80090641C761E002EF7DC069810F8C7
:10423000041B0690C8B2BC4200D82070641C04E085
:10424000BC4201D884F80090641C761E002EF7DC76
:1042500063E0069808C8069003B941A31846FFF723
:10426000F7FBB8F1000F02DD404500DD4046E906EE
:1042700005D508E0BC4201D884F80090641C3146A2
:10428000761E8142F6DC002106E0BC4201D81A7895
:104290002270641C5B1C491C8142F6DB04E0BC42BA
:1042A00001D884F80090641C3146761E8142F6DC09
:1042B00033E01BE014E0701C02D1082645F0010534
:1042C0000295CDE9006806981023394604C8069087
:1042D0002046FEF78BFE04461FE00FE00AE028E0D0
:1042E000BC4201D884F800B0641C16E0082305E045
:1042F00045F04005102301E045F002056C291BD074
:1043000068291DD0069804C806903946CDE9006892
:1043100020460295FEF76AFE04460598401C05906B
:104320000598007800287FF4E8AEBC4211D82070D0
:1043300010E0491E0591F0E7069804C80690E4E7EE
:10434000069830F8041B06908AB2A807DDD512B291
:10435000DBE7387007B0A4EB0A00BDE8F08F00007F
:10436000284E554C4C290000002070470020704713
:10437000002070470020704710B5FBF7A9FFFEF73B
:104380008BFFFFF70DFBFFF705FCFFF7D5FBFEF7F3
:10439000C1FEFFF70BFCFFF79FFCFFF7E7FB0020D8
:1043A00010BD024610B500206FF02F0407E04B1C33
:1043B000136000EB8000097804EB400008441168AA
:1043C0000B78303B0A2BF2D310BD000070B5084CBF
:1043D000A068401CA060FFF753FD0546A16805A03A
:1043E000FFF77CF82946BDE870400AA0FFF776B8D1
:1043F000080000247377746D72315F63616C6C62C6
:1044000061636BBAAFCAFDD6B4D0D020256420B4A6
:10441000CE0A0000B5CEB4F0B6A8CAB1C6F7CAFD40
:10442000D6B53D25640A000070B5084CE068401C14
:10443000E060FFF725FD0546E16805A0FFF74EF8AF
:104440002946BDE870400AA0FFF748B808000024DC
:104450007377746D72325F63616C6C6261636BBAA7
:10446000AFCAFDD6B4D0D020256420B4CE0A000057
:10447000B5CEB4F0B6A8CAB1C6F7CAFDD6B53D25CB
:10448000640A0000000000000102030401020304AA
:1044900006070809010002000400060008000A00DF
:1044A0000C0010002000400080000001000001000E
:1044B00002000100030001000200010004000100ED
:1044C00002000100030001000200010005000100DC
:1044D00002000100030001000200010004000100CD
:1044E00002000100030001000200010006000100BB
:1044F00002000100030001000200010004000100AD
:10450000020001000300010002000100050001009B
:10451000020001000300010002000100040001008C
:104520000200010003000100020001000700010079
:10453000020001000300010002000100040001006C
:10454000020001000300010002000100050001005B
:10455000020001000300010002000100040001004C
:10456000020001000300010002000100060001003A
:10457000020001000300010002000100040001002C
:10458000020001000300010002000100050001001B
:10459000020001000300010002000100040001000C
:1045A000020001000300010002000100303132333B
:1045B00034353637383961626364656600303132CC
:1045C00033343536373839414243444546000000DC
:1045D000754300086D4300086943000871430008F3
:1045E0000046000800000024A8000000A42D0008D8
:1045F000A8460008A8000024D8160000B42D000822
:104600000090D0030090D0030000000000000000E4
:10461000000000000000000000000000000000009A
:10462000000000000000000000000000000000008A
:104630000000000000000000000000003C0000241A
:104640003C00002478000000010000004C00002421
:104650004C00002420000000040000005C00002446
:104660005C00002430000000090000006C00002401
:104670006C0000242C00000000000000000000007E
:10468000000000000000000000000000000000002A
:10469000000000000000000000000000000000001A
:0846A000000000000000000012
:040000050800029954
:00000001FF
