:020000040800F2
:10000000F0160024AD02000811100008B303000828
:10001000B3030008130400083911000800000000B1
:1000200000000000000000000000000013100008A5
:100030001504000800000000FF0200081510000869
:10004000C7020008C7020008C7020008C70200086C
:10005000C7020008C7020008C7020008C70200085C
:10006000C7020008C7020008C7020008C70200084C
:10007000C7020008C7020008C7020008C70200083C
:10008000C7020008C7020008C7020008C70200082C
:10009000C7020008C7020008C7020008C70200081C
:1000A000C7020008C7020008C7020008C70200080C
:1000B000C7020008C7020008C7020008C7020008FC
:1000C000C7020008C7020008C7020008C7020008EC
:1000D000C7020008C7020008C7020008C7020008DC
:1000E000C7020008C702000800000000C70200089D
:1000F000C7020008C7020008C7020008C7020008BC
:10010000C7020008C7020008C7020008C7020008AB
:10011000C7020008C7020008C7020008C70200089B
:10012000C7020008C7020008C7020008C70200088B
:10013000C7020008C7020008C7020008C70200087B
:1001400000000000000000000000000000000000AF
:10015000C7020008C7020008C7020008C70200085B
:10016000C7020008C7020008C7020008C70200084B
:10017000C7020008C7020008C7020008000000000C
:10018000C7020008C7020008C7020008C70200082B
:10019000C7020008C7020008C7020008C70200081B
:1001A000C7020008C7020008C7020008C70200080B
:1001B000C7020008C7020008C7020008C7020008FB
:1001C000C7020008C7020008C7020008C7020008EB
:1001D000C7020008C7020008C7020008C7020008DB
:1001E000C7020008C7020008C7020008C7020008CB
:1001F000C7020008C7020008C7020008C7020008BB
:10020000C7020008C7020008C7020008C7020008AA
:10021000C7020008C7020008C7020008C70200089A
:10022000C7020008C7020008C7020008000000005B
:10023000C7020008C702000800000000C70200084B
:10024000C7020008C7020008C7020008C70200086A
:10025000C7020008C7020008C7020008C70200085A
:10026000C7020008C7020008C7020008C70200084A
:10027000C7020008C7020008C7020008000000000B
:10028000C702000800000000C702000800000000CC
:1002900000000000C7020008DFF80CD000F0A0F852
:1002A0000048004705040008F0160024064880476F
:1002B00006480047FEE7FEE7FEE7FEE7FEE7FEE74B
:1002C000FEE7FEE7FEE7FEE7B5100008990200082A
:1002D000EFF3108072B6704780F3108870473A4A87
:1002E0001368012B04D04FF001031360374A1060EC
:1002F000374A116037484FF0805101607047EFF383
:10030000108272B63048016851B34FF000010160AD
:100310002E48016891B1EFF309811EF0100F08BF5C
:1003200021ED108B21E9F00F4FF000041EF0100FAB
:1003300008BF012441F8044D0068016024490968A0
:10034000096808C9B1E8F00F002B18BFB1EC108B99
:1003500081F309884EF0100E002B18BF2EF0100EFE
:1003600082F310884EF0040E704719490860EFF3CD
:10037000148222F0040282F3148814494FF0000022
:10038000086011494FF00100086013484FF47F01E5
:10039000D0F8002041EA020101600E484FF0805180
:1003A00001600E480068006880F3088861B662B694
:1003B0007047EFF3098000B501F03EF95DF804EBFA
:1003C0004EF0040E70470000940000248C000024BE
:1003D0009000002404ED00E020ED00E008ED00E0D6
:1003E000064C074D06E0E06840F0010394E8070082
:1003F00098471034AC42F6D3FFF752FF5428000858
:100400007428000810B5FFF763FF02F059F90020C7
:1004100010BDFEE7704700002DE9F84F00226D4C3B
:100420004FF0B04A4FF001094FF0030E4FF00F08A4
:1004300009FA02F70B683B40BB4270D14D68022DB0
:1004400001D0122D12D1D50800EB850CDCF820600C
:100450005507ED0E08FA05FB26EA0B06D1F810B099
:100460000BFA05FB4BEA060BCCF820B0D0F800C025
:1004700055000EFA05F62CEA060C91F804B00BF0C4
:10048000030B0BFA05FB4BEA0C0BC0F800B0D1F8DC
:1004900004C0BCF1010F08D0BCF1020F05D0BCF1C3
:1004A000110F02D0BCF1120F16D1D0F808C02CEAFF
:1004B000060CD1F80CB00BFA05FB4BEA0C0BC0F89C
:1004C00008B0D0F804C02CEA070C0F79C7F3001766
:1004D000974047EA0C074760C768B7438E68AE404D
:1004E0003E43C6604D68ED006DD53B4D2E6846F02D
:1004F00002062E602D6805F00205009522F0030625
:1005000006F1B046D6F808C495072F0F08FA07F58C
:100510002CEA050C314DA84202D100252EE052E014
:100520002F4DA84201D1012528E02E4DA84201D12E
:10053000022523E02C4DA84201D103251EE02B4DBE
:10054000A84201D1042519E0294DA84201D1052571
:1005500014E0284DA84201D106250FE0264DA842FF
:1005600001D107250AE0254DA84201D1082505E063
:10057000234DA84201D1092500E00A25BD4045EAE6
:100580000C05C6F8085425689D434E68F60300D54F
:100590001D43256065689D434E68B60300D51D4325
:1005A0006560DAF800509D434E68F60200D51D43A1
:1005B000CAF80050DAF804509D434E68B60200D5E0
:1005C0001D43CAF80450521C102AFFF431AFBDE895
:1005D000F88F000080000058F444025800000258D0
:1005E0000004025800080258000C0258001002587B
:1005F0000014025800180258001C0258002002582B
:1006000000240258044840680449B0FBF1F04FF45C
:100610007A71484370470000001000E000389C1CCD
:100620000648016841F08071016005480021416081
:10063000016841F00101016000207047FCED00E01D
:10064000001000E02DE9F04704460E46DFF8CC81AB
:10065000D8F8000000F00700B0420FD2D8F8000030
:1006600020F007003043C8F80000D8F8000000F080
:100670000700B04202D00120BDE8F0872078684F23
:10068000800705D53868E16820F00F00084338601E
:100690002078C00770D03868A16820F470600843E3
:1006A00038605F4960681839022808D003280BD0E9
:1006B00001280ED00968490710D40120DCE7096839
:1006C00089030BD40120D7E70968890106D40120EA
:1006D000D2E70968C90501D40120CDE7DFF84091D0
:1006E000A9F10809D9F8001021F007010143C9F860
:1006F0000010FFF787FF0546606841F2883A02283C
:100700000BD0032817D0012823D030E0FFF77AFF61
:10071000401B504501D90320AEE7D9F80000C0F3D3
:10072000C2000228F2D127E0FFF76CFF401B5045C2
:1007300001D90320A0E7D9F80000C0F3C2000328C4
:10074000F2D119E0FFF75EFF401B504501D90320AD
:1007500092E7D9F80000C0F3C2000128F2D10BE003
:10076000FFF750FF401B504501D9032084E7D9F81B
:10077000000010F0380FF3D1D8F8000000F00700A7
:10078000B0420ED9D8F8000020F007003043C8F876
:100790000000D8F8000000F00700B04201D00120AE
:1007A0006AE72078400705D53868216920F0700095
:1007B0000843386020781B49000705D5086862693E
:1007C00020F07000104308602078C00605D5086846
:1007D000A26920F4E060104308602078800607D505
:1007E0001049091D0868E26920F070001043086094
:1007F00000F01EF839684FF4807292FAA2F201F408
:100800007061B2FA82F2D140074A515CC840074990
:1008100008600020FFF704FF00202DE700200052B1
:10082000184402581C4402581227000800000024F3
:10083000F0B55C4800685D4D10F038015A4809D0A9
:10084000041108290ED05A4E10290DD018290DD0A8
:100850002046F0BD29688906FBD52968C1F3C1018E
:10086000C840F0BD2046F0BD3046F0BD4D491831BE
:100870000A6802F003020968C1F30511494B1C33F1
:100880001B6803F00103474F24373F68C7F3CC07C9
:1008900017FB03F300EE103AB8EE400ADFED450A0D
:1008A000404BB7EE001A20332AB3012A52D0022A55
:1008B00064D0B4FBF1F001EE900A1868B8EE612A3A
:1008C000C0F3080001EE900AF8EE611A40EE201A1B
:1008D00031EE810A22EE000A1868C0F34620401C5F
:1008E00000EE900AF8EE600A80EE201ABCEEC10A13
:1008F00010EE100AF0BD2A68920617D52A68C2F3D6
:10090000C102D040B0FBF1F001EE900A1868B8EED9
:10091000612AC0F3080001EE900AF8EE611A40EE79
:10092000201A31EE810A22EE000AD5E7B0FBF1F081
:1009300001EE900A1868B8EE612AC0F3080001EED3
:10094000900AF8EE611A40EE201A31EE810A22EE8A
:10095000000AC1E7B4FBF1F001EE900A1868B8EEA6
:10096000612AC0F3080001EE900AF8EE611A40EE29
:10097000201A31EE810A22EE000AADE7B6FBF1F053
:1009800001EE900A1868B8EE612AC0F3080001EE83
:10099000900AF8EE611A40EE201A31EE810A22EE3A
:1009A000000A99E7104402580090D003004402580E
:1009B00040787D01000000392DE9F0470446FC4FE6
:1009C000FC4EFD4D2078C0075FD03868C0F3C200F0
:1009D00002281FD03868C0F3C200032804D1306851
:1009E00000F00300022815D06068B0F5803F19D0F0
:1009F000E8B1B0F5A02F23D0286820F4803028601B
:100A0000286820F480202860606870B3FFF7FAFD42
:100A1000804626E02868800337D5606820BB012027
:100A2000BDE8F087286840F480302860ECE728684B
:100A300020F480302860286820F480202860E3E7D4
:100A4000286840F480202860286840F480302860BE
:100A5000DAE7FFF7D7FDA0EB0800642801D90320EF
:100A6000DEE728688003F4D50FE0FFE7FFF7CAFD53
:100A7000804607E0FFF7C6FDA0EB0800642801D917
:100A80000320CDE728688003F4D42078DFF82C9386
:100A900080076FD538684FF47C3A10F0380F12D0C9
:100AA0003868C0F3C200032802D1306880070AD03A
:100AB000E06890B3296821F0190101432960FFF72C
:100AC000A1FD804632E02868400701D5E06848B1C2
:100AD0002868E16820F0190008432860FFF792FDBC
:100AE000804609E001209BE7FFF78CFDA0EB0800A2
:100AF000022801D9032093E728684007F4D5D9F8E4
:100B000000009AFAAAF220F47C312069B2FA82F24B
:100B100090400143C9F800102CE018E0FFF772FD87
:100B2000A0EB0800022801D9032079E728684007D4
:100B3000F4D5D9F800009AFAAAF22169B2FA82F241
:100B400020F47C3091400843C9F8000012E0286886
:100B500020F001002860FFF755FD804607E0FFF711
:100B600051FDA0EB0800022801D9032058E72868AE
:100B70004007F4D42078C0065DD538684FF0F84AB5
:100B8000C0F3C200012813D03868C0F3C2000328A4
:100B900004D1306800F00300012809D0E069B0B347
:100BA000286840F080002860FFF72CFD80461DE09B
:100BB0002868C00504D5E069802801D001202FE70E
:100BC000D9F800009AFAAAF2216AB2FA82F220F069
:100BD000F84091400843C9F800002CE0FFF712FDEF
:100BE000A0EB0800022801D9032019E72868C005F6
:100BF000F4D5D9F800009AFAAAF2216AB2FA82F280
:100C000020F0F84091400843C9F8000013E0FFE7E6
:100C1000286820F080002860FFF7F4FC804607E099
:100C2000FFF7F0FCA0EB0800022801D90320F7E64B
:100C30002868C005F4D42078000732D5DFF8749115
:100C4000606909F14C09B0B1D9F8000040F0010029
:100C5000C9F80000FFF7D6FC804607E0FFF7D2FC9A
:100C6000A0EB0800022801D90320D9E6D9F800003A
:100C70008007F3D515E0D9F8000020F00100C9F88D
:100C80000000FFF7BFFC804607E0FFF7BBFCA0EBCE
:100C90000800022801D90320C2E6D9F80000800725
:100CA000F3D42078800628D5A06998B1286840F44C
:100CB00080502860FFF7A6FC804607E0FFF7A2FC03
:100CC000A0EB0800022801D90320A9E628688004C7
:100CD000F4D512E0286820F480502860FFF792FCD9
:100CE000804607E0FFF78EFCA0EB0800022801D940
:100CF000032095E628688004F4D4207840077ED548
:100D0000DFF8BC80D8F8000040F48070C8F800001C
:100D1000FFF778FC814607E0FFF774FCA0EB0900C1
:100D2000642801D903207BE6D8F80000C005F3D57C
:100D3000DFF88080A06808F14808012816D0E0B1EB
:100D4000052827D0D8F8000020F00100C8F80000DE
:100D5000D8F8000020F00400C8F80000A06841F2B4
:100D6000883A20B3FFF74EFC814633E0D8F8000004
:100D700040F00100C8F80000F0E7D8F8000020F0CB
:100D80000100C8F80000D8F8000020F00400C8F8FE
:100D90000000E3E7D8F8000040F00400C8F80000C5
:100DA000D8F8000040F00100C8F80000D6E716E0CF
:100DB000104402582844025800440258044402587F
:100DC00000480258FFF71EFCA0EB0900504501D96E
:100DD000032025E6D8F800008007F3D50FE0FFF7E1
:100DE00011FC814607E0FFF70DFCA0EB0900504520
:100DF00001D9032014E6D8F800008007F3D4606A14
:100E0000E8B33968C1F3C201032975D0022807D0BD
:100E1000286820F080702860FFF7F4FB04467EE02D
:100E2000286820F080702860FFF7ECFB074606E09A
:100E3000FFF7E8FBC01B022801D90320F0E5286872
:100E40008001F5D4306840F2F3318843E16A40EA2A
:100E50000110A16A08433060208E4FF6FF72616B6B
:100E6000401E491EC0F3080002EA41210843218FB9
:100E70004FF4FE02491E02EA0141084300E051E03E
:100E800094F83C10491E120202EA01610843274906
:100E90000860081D01684FF6F872A36C914392FA3E
:100EA000A2F2B2FA82F29340194301601F48001F78
:100EB0000168226C21F00C01114301600168626C31
:100EC00021F0020111430160016841F480310160A9
:100ED000016841F400310160016841F48021016042
:100EE000016841F001010160286840F080702860CD
:100EF000FFF788FB044607E016E0FFF783FB001BC3
:100F0000022801D903208BE528688001F5D509E086
:100F1000FFF778FB001B022801D9032080E5286831
:100F20008001F5D400207BE5012079E530440258AA
:100F300010B5401EB0F1807F01D3012010BD4FF0ED
:100F4000E02460610F21601700F0F7F80020A06135
:100F500007202061002010BD2DE9F04186B0274810
:100F6000016841F001010160016801F00101009197
:100F7000016841F010010160016801F01001009169
:100F8000016841F040010160016801F040010091F9
:100F9000016841F002010160006800F00200009069
:100FA0004FF4004401940120029003900220049029
:100FB00001A9134D2846FFF72FFA04260196114F79
:100FC00001A93846FFF728FA019401A90E48FFF756
:100FD00023FA4FF48078CDF804800C4801A9FFF77C
:100FE0001BFA2C833E8308481830048007481830C9
:100FF000A0F8008006B0BDE8F0810000E04402588F
:10100000000002580010025800180258000402584C
:101010007047704710B500F0B1FB01F0F3F8BDE880
:10102000104000F0B9BB000030B59DB02048016809
:1010300021F00401016000241D480C30016841F4D6
:1010400040410160016801F4404101910168890457
:10105000FCD501200290000403900594099402201D
:101060000B900C9005210D91C0210E910F901190C5
:101070000420109013940825129502A8FFF79CFCF9
:1010800000B1FEE73F2015900320169017941895A5
:10109000402019901A9001011B911C90042115A861
:1010A000FFF7D0FA002800D0FEE71DB030BD0000E9
:1010B0000C4802581C48016841F4700101601B494A
:1010C000086840F001000860184A002010321060E3
:1010D0000A68174B1A400A60144A18321060121D31
:1010E0001060121D1060114A28321060121D10602D
:1010F000121D1060121D1060121D1060121D106074
:10110000121D1060121D10600A6822F480220A600D
:10111000064960310860012006490860C00602499E
:10112000803908607047000088ED00E000440258F4
:101130007FEDF6EA08810051FEE70907090E002855
:1011400004DB00F1E02080F80014704700F00F008D
:1011500000F1E02080F8141D70470000002807D03F
:101160000F4910F0FF0F05D0C0B2085C401C70475B
:101170000020704710F47F4F04D0C0F30720085CB4
:101180000930704710F47F0F04D0C0F30740085CAB
:101190001130704701EB1060007819307047000083
:1011A0002227000802E008C8121F08C1002AFAD14D
:1011B00070477047002001E001C1121F002AFBD1D7
:1011C0007047000003480168814201D00120704748
:1011D00000207047740000242DE9FC411F4604469E
:1011E000DDE90A65DDE9083104F1140040600060C2
:1011F0001C346260A760E36021610A46232118461F
:1012000000F0D6FBD4E903010F4B4218121FD4E9BA
:10121000010100F093FA2060A67666760020E06176
:1012200025626562606120766065A0651C3C074AA6
:10123000234621460090019004F1440001F058F843
:101240000020BDE8FC810000351F0008792100085E
:1012500010B5029C24F001044472C16102620021B5
:101260008162436200EBC102143252601260491C79
:101270000129F7DB10BD10B5002200EBC2011431CB
:10128000D1E900436360D1E900342360496009601B
:10129000521C012AF1DB10BD064D4FF400444FF4FF
:1012A000FA766C83304600F042FE2C83304600F024
:1012B0003EFEF6E7000002581CB514200321002270
:1012C000CDE9001007494FF4007307A000F009FEB4
:1012D0000749086018B100F01BFF00201CBD4FF04B
:1012E000FF301CBD991200086C65643100000000DD
:1012F0000400002410B500F0E7F8BDE81040FFF747
:10130000DBBF000030B5134C4168226811448842AD
:1013100002F108030DD04D885DB96568A94208D077
:10132000A5688D4200D1A0604D684560851A496866
:10133000CD508168114481420BD04D88002D08D1D9
:10134000A568854200D1A16044684C60891A406854
:10135000C15030BD100000242DE9FF4FDDE90DB66E
:101360000F9D6C0602D5DFF814A103E0DFF80CA195
:10137000AAF1110AEC0601D525F00105EC0702D00F
:101380004FF0300901E04FF020090027AC070BD5E2
:10139000002A02DA2D27524206E06C0701D52B27DE
:1013A00002E02C0700D520270024EE467AB930222F
:1013B0008DF8002001240CE00A2B15D002F00F0854
:1013C0001209A446641C1AF808800EF80C80002A42
:1013D000F2D1B44200DD2646ABEB06024FF020030B
:1013E00015F0110F09D016E04FF00A0CB2FBFCF813
:1013F0000CFB1828B2FBFCF2E3E73FB1002A05DD45
:10140000521E03E0884200D80370401CB2F1000C69
:10141000A2F10102F6DC27B1884201D80770521E02
:10142000401CED0605D508E0884201D880F8009000
:10143000401C151EA2F10102F6DC302703E08842B1
:1014400000D80770401C3546761EA542F7DC05E043
:10145000884202D81EF804500570401C251EA4F1D5
:101460000104F5DC03E0884200D80370401C141E20
:10147000A2F10102F7DC04B0BDE8F08F33280008C8
:101480001CB5142002210022CDE900100B020449F2
:1014900004A000F026FDBDE81C4000F039BE0000AD
:1014A000F51200086D61696E0000000070B5044C13
:1014B000044D02E020688047241DAC42FAD370BD81
:1014C000482800084C28000870B5044C044D02E080
:1014D00020688047241DAC42FAD370BD4C28000818
:1014E0005028000810B5FEF7F3FE044A5188491C45
:1014F0005180BDE81040FEF7EFBE000068000024F8
:1015000010B5FEF7E5FE094A5188491E09B251801F
:10151000002907DC00215180FEF7DEFEBDE8104007
:1015200000F0E6BABDE81040FEF7D6BE6800002421
:1015300070B5002833D01A4D296888422FD36968C6
:1015400088422CD2A0F10C0416484FF0FF3100F075
:101550008AFB60884FF4F55610B12088B04208D05D
:1015600011A000F055F9238816A06288214600F0EA
:101570004FF9002060802680A868844200D2AC60C9
:1015800029686068611A401A2969081A286120468A
:10159000FFF7B8FEBDE87040024800F046BB70BDE2
:1015A0001000002490120024746F2066726565207C
:1015B0006120626164206461746120626C6F636B9E
:1015C0003A0A00006D656D3A203078253038782C65
:1015D000207573656420666C61673A2025642C2051
:1015E0006D6167696320636F64653A2030782530E8
:1015F00034780A000048704798000024004870477B
:101600009810002410B5FFF70FFDFFF711F94FF404
:101610007A71B0FBF1F0FFF78BFCFFF79DFCFFF751
:1016200045FFFFF7EBFF0446FFF7E4FF2146BDE867
:10163000104000F0C3BB704710B50446174801685E
:10164000002903D020468847002826D0E16914A04D
:1016500000F0DEF8A16916A000F0DAF8616918A0C0
:1016600000F0D6F821691AA000F0D2F8E1681CA0B9
:1016700000F0CEF8A1681EA000F0CAF8616820A0B2
:1016800000F0C6F8216822A000F0C2F800F01AFDB0
:10169000014623A000F0BCF8FEE710BD880000243E
:1016A0007073723A203078253038780A00000000D4
:1016B0002070633A203078253038780A0000000026
:1016C000206C723A203078253038780A000000000B
:1016D0007231323A203078253038780A0000000024
:1016E0007230333A203078253038780A0000000014
:1016F0007230323A203078253038780A0000000005
:101700007230313A203078253038780A00000000F5
:101710007230303A203078253038780A00000000E6
:1017200068617264206661756C74206F6E207468E5
:10173000726561643A2025730A00000070B50646A0
:10174000121D22F00700A0F14405284600220A4C91
:1017500040F82240521C112AFAD3416200218162D2
:10176000C162016341638363C6634FF080720264A8
:101770000160284670BD0000EFBEADDE10B5FEF77B
:10178000A7FD044A1178491C1170BDE81040FEF70E
:10179000A3BD00000C00002410B5FEF799FD044A1B
:1017A0001178491E1170BDE81040FEF795BD00008C
:1017B0000C0000242DE9F04105460E461446304643
:1017C00000F0B9FC06F1140714B1012C1DD104E09E
:1017D0003946284600F043F817E02C680DE0A4F1E4
:1017E000140096F8351090F83520914204D2143048
:1017F000394600F034F802E02468AC42EFD1AC4244
:1018000003D13946284600F02AF80020BDE8F081CF
:101810000FB408B503AB00937F210548029A00F08E
:10182000FFFD0348FFF707FF01B05DF814FB000060
:10183000101200240268516002680A60016048606A
:1018400070470268516002680A6001604860704732
:101850000268516002680A6001604860704742682F
:10186000116042684A6041600860704701688142C7
:1018700001D101207047002070470168814201D1E9
:101880000120704700207047D0E900215160D0E965
:1018900000121160406000607047D0E90021516083
:1018A000D0E9001211604060006070472DE9F047F8
:1018B000002809D0C01C20F003053B4EF06885428B
:1018C00004D90020BDE8F0870020FBE70C2D00D2F2
:1018D0000C2536484FF0FF3100F0C5F9B768316884
:1018E000781AD6F80CC0ACEB050356E00C186288E9
:1018F0008ABB6268121A0C3AAA424DD3626805F19B
:1019000018034FF001094FF4F558121A0C3A9A4295
:1019100022D343190C33CA18A2F800804FF0000AF2
:10192000A2F802A0D4F804A0C2F804A090606360FA
:10193000A4F802900CF10C0C5068604502D001F143
:1019400008028350306928440C3030617269824249
:101950000ED270610CE01FE0A4F80290621A606879
:10196000801A3269104430617269824200D270611B
:10197000A4F80080BC4203D008E040680844B0608E
:10198000B068428812B172689042F6D1074800F000
:101990004CF904F10C0095E760688342A6D803482F
:1019A00000F043F900208DE710000024901200247D
:1019B00010B50346CCB2042A15D3810713D10146D2
:1019C00044EA042343EA034305E00B604B608B6069
:1019D000CB601031103A102AF7D201E008C1121F73
:1019E000042AFBD20B46E1B201E003F8011B521EB0
:1019F000541CFAD110BD2DE9F04106460F46304681
:101A000000F03EF80546E868FFF750FF0446ACB129
:101A100026720020607208223946204600F0BAF98A
:101A2000FEF756FC0646281D04F10C01FFF702FFE5
:101A30003046FEF751FC2046BDE8F0810020FBE770
:101A400070B50446FEF744FC054604F10C00FFF7B0
:101A50001BFF2846FEF740FC2046BDE87040FFF71C
:101A600067BD70B50446FEF733FC054604F10C0073
:101A7000FFF70AFF2846BDE87040FEF72DBC0000C6
:101A80000021074A02EB01131B78834202D102EBCB
:101A900001107047491C0429F4DB00207047000046
:101AA000280000242DE9F04104460D46174628463B
:101AB000FFF7E6FF064645F080002072082239460F
:101AC000204600F067F9FEF703FC0546301D04F1DF
:101AD0000C01FFF7AFFE2846BDE8F041FEF7FCBB66
:101AE000007A000601D501207047002070470000F1
:101AF00070B5FEF7EDFB0546174C608820B128460F
:101B0000BDE87040FEF7E8BBA068FFF727FB421E68
:101B1000124850F8321014396068814216D0227091
:101B200061600F4A127842B11C311C30FEF7D7FBBE
:101B30002846BDE87040FEF7CFBB1C311C30FEF7D5
:101B4000CEFB2846BDE87040FEF7C6BB2846BDE880
:101B50007040FEF7C1BB000068000024B0120024F2
:101B60000C00002410B50446FEF7B2FB024614F840
:101B7000340F20F00F00401C20706078343C0A497C
:101B800001EBC00104F114004B6818604B6843601E
:101B9000486001600548A16B836819438160BDE816
:101BA00010401046FEF798BBB012002468000024D5
:101BB00070B50546FEF78CFB014605F11404D4E927
:101BC00000205060D4E9000210606460246095F841
:101BD00035000A4A02EBC0000268824201D10120AE
:101BE00000E0002020B10648AB6B82689A43826017
:101BF000BDE870400846FEF76FBB0000B01200243D
:101C0000680000242DE9F041054616461F460A46A5
:101C100001212846FFF746FF2C46143464602460F7
:101C2000AE836F720020BDE8F08170B504460025D8
:101C3000FEF74EFB064604F11400FFF717FE40B115
:101C4000A08B401CA0833046FEF746FB012D06D03A
:101C500007E06069143800F017FA0125F3E7FFF791
:101C600047FF002070BD73B50446FEF731FB064602
:101C7000A08B28B1401EA0833046FEF72DFB21E04B
:101C8000019808B300F01EFA05460020286304F10D
:101C90001400627A2946FFF78DFD0198002809DDBE
:101CA00005F144000021044601AA00F0F7FA20469D
:101CB00000F034FB3046FEF70FFBFFF719FF286BEF
:101CC000002800D100207CBD3046FEF705FB6FF0F8
:101CD00001007CBD08B509A0FFF79AFD0AA0FFF737
:101CE00097FD032311A019460022009012A0FFF7D0
:101CF0008FFDBDE8084018A0FFF78ABD0A205C20D0
:101D00007C202F0A000000002D205254202D20207E
:101D1000202020546872656164204F706572617480
:101D2000696E672053797374656D0A004A756C207B
:101D30003331203230323000202F207C205C2020B4
:101D400020202025642E25642E2564206275696C70
:101D5000642025730A0000002032303036202D2008
:101D60003230313820436F7079726967687420624D
:101D7000792072742D746872656164207465616D78
:101D80000A000000014600E0491C0A78002AFBD145
:101D9000081A704710B5002A07D0034611F8014B06
:101DA00003F8014B14B1521EF8D110BD002101E01F
:101DB00003F8011B521EFBD110BD000070B5054693
:101DC0000A46E81C20F0030122F00303182B21D956
:101DD000A3F118048C421DD3114C5A1A183AE26030
:101DE00021604FF4F5530B800C324A60002088606C
:101DF0004880486808446060038001214180426057
:101E0000826000230948012206A1FFF7FBFE20683B
:101E1000A06070BD2946BDE8704005A0FFF7F8BC82
:101E2000100000246865617000000000901200241A
:101E30006D656D20696E69742C206572726F7220F9
:101E4000626567696E2061646472657373203078BF
:101E500025782C20616E6420656E64206164647254
:101E600065737320307825780A00000010B50A4B9E
:101E700000245C800020094A02EBC001496009602F
:101E8000401C0828F8DB072018705C609C60024842
:101E90000C304060006010BD68000024B0120024C7
:101EA00010B5074CA068FFF759F9401E054951F8D5
:101EB000300014386060BDE810401C30FEF755BAA1
:101EC00068000024B01200240020044A02EBC00184
:101ED00049600960401C0028F8D070478000002449
:101EE00070472DE9FF478046894692461D46DDE949
:101EF0000C6700204146FFF77EFD044620000FD00E
:101F00002846FFF7D3FC68B18DE8E10053464A4606
:101F100041462046FFF760F9204604B0BDE8F0874F
:101F20000020FAE72046FFF78BFD0020F5E700F0E0
:101F3000CFB8000070B513480468FEF7C9F905462C
:101F40002046FFF735FE042084F8340004F14400F5
:101F500000F0BEF92046FFF7C3FD012801D1206F34
:101F600058B1094804F11401FFF76BFC2846FEF74D
:101F7000B3F9BDE87040FFF7BBBD2046FFF771FD28
:101F8000F4E700006C0000247400002400F002F864
:101F9000FCE7000070B527E0FEF79AF90646FFF768
:101FA00011F968B319480468A4F11405D4E90010C4
:101FB0004860D4E90001086064602460FFF792FA89
:101FC000296F09B1284688472846FFF789FD01286F
:101FD0000FD0FFF795FA3046FEF77EF9A86AFFF7B3
:101FE000A7FA2846FFF72CFDFFF7ECF80028D3D11D
:101FF00070BDFFF785FA3046BDE87040FEF76CB95A
:102000003046BDE87040FEF767B900007400002458
:102010001FB520200A4B0721C200CDE90210084855
:1020200009A1CDE90032074A0023783800F010F802
:1020300004B003487838BDE8104000F069B80000EB
:10204000101100248D1F00087469646C6500000085
:102050002DE9FF5F8146884692469B46DDE90E7674
:10206000DDE91054002142464846FFF71BFDCDE94B
:102070000076CDE902545B46524641464846FFF79A
:10208000ABF804B0BDE8F09F70B5044694F8340096
:1020900000F00F00022802D04FF0FF3070BDFEF7B5
:1020A00017F9054604F11400FFF7F7FB04F14400AB
:1020B00000F09EF92846FEF70FF92046FFF752FD83
:1020C000002070BD01480068704700006C000024CB
:1020D000F1B5FEF7FDF805460C480468204600F00F
:1020E0002AF804F144006A460021064600F0D6F8BA
:1020F000304600F013F92846FEF7EEF8FFF7F8FC3B
:10210000206B801C00D120630020F8BD6C000024EF
:1021100010B534308178417001228A40426002213A
:1021200000F83419FFF7B0FFFFF7CCFF08B1FFF755
:10213000DFFC002010BD70B5044694F8340000F0B8
:102140000F00012802D04FF0FF3070BDFEF7C0F83D
:10215000054694F8340020F00F00801C84F8340009
:102160002046FFF725FD04F1440000F041F9284620
:10217000FEF7B2F8002070BD10B504466FF0010004
:10218000206304F11400FFF788FB2046FFF7EAFC08
:10219000BDE81040FFF7ACBC70B5FEF799F80646F5
:1021A0001348046894F8340000F00F0001281AD195
:1021B000D4E90501884216D004F114000546FFF762
:1021C0006CFB94F835000B4901EBC00041680D60D1
:1021D00041686960456028603046FEF77DF8FFF78A
:1021E00087FC002070BD3046FEF776F8002070BDF9
:1021F0006C000024B0120024014800687047000001
:102200000800002410B509490868401C0860FFF761
:1022100059FF016C491E016419B9C16B0164FFF7D4
:10222000BBFFBDE8104000F003B800000800002428
:1022300070B5FFF7E1FF0646FEF74AF8054620E0D5
:1022400015480468143C6FF00041A06A301A8842B7
:102250001CD22046FFF70FF8D4E907108847FFF794
:10226000CBFF0646607A810708D5C10706D020F06B
:1022700001006072204600F051F802E020F00100F9
:1022800060720548FFF7F9FA0028D9D02846BDE862
:102290007040FEF721B8000080000024002909D01A
:1022A000012904D0022908D003290FD10AE0406A8D
:1022B00010600BE01168416208E0417A21F00201F0
:1022C000417203E0417A41F00201417200207047FF
:1022D00070B50546FDF7FCFF04462846FEF7CBFF28
:1022E0002046FDF7F9FF2846FFF7BBFB002070BD35
:1022F0002DE9F843074615461E46DDE908840A46DF
:1023000038460921FFF7CEFB434632462946384678
:102310000094FEF79DFFBDE8F88300002DE9F84327
:102320000446FDF7D5FF05462046FEF7A4FF607A78
:1023300020F0010060722846FDF7CEFFFFF75CFF3A
:10234000616A0844A062FDF7C3FF0746DFF89CC03E
:10235000CDF800C000226E460CEBC20045680DE0CF
:102360000068A0EBC201A36A4969994204D0C91A66
:102370006FF00043994205D346F8220056F8220038
:10238000A842EDD12AB156F822100831531C46F864
:102390002310521C002ADFD01448001FD0F8008000
:1023A00008F10108C0F80080009804F11401FFF75B
:1023B0004FFA02250EE05FEA88700DD1C5F10100E9
:1023C00004EBC00156F820001431FFF741FA4FEA40
:1023D00098086D1C012DEED9607A40F00100607202
:1023E0003846FDF779FF0020BDE8F883800000241F
:1023F00070B50446607AC0070ED0FDF769FF054648
:102400002046FEF738FF2846FDF766FF607A20F089
:1024100001006072002070BD4FF0FF3070BD000001
:102420002DE9FF4F83B082460AEB01077F1E544619
:10243000A74201D24FF0FF374FF020094FF0250B94
:1024400012E1252804D0BC4200D82070641C08E1A9
:1024500000250599491C059108782D2814D02B28B2
:1024600015D0202816D0232817D0302818D04FF0A8
:10247000FF384646059A1278303A0A2A13D205A840
:1024800000F033F906461AE045F01005E1E745F0A3
:102490000405DEE745F00805DBE745F02005D8E751
:1024A00045F00105D5E72A2809D1491C0591069870
:1024B00040C80690002E02DA764245F010050598D5
:1024C00001782E2918D1401C05900178A1F1300225
:1024D0000A2A04D205A800F008F9804607E02A2954
:1024E00005D1401C0590069850F8048B0690B8F171
:1024F000000F01DA4FF000080021059A10786828D3
:1025000001D06C2802D10146521C05920A2305987D
:1025100000786F2871D00CDC632820D004DC2528DB
:102520006CD058280DD187E0642801D0692808D1E3
:1025300086E0702863D073282FD0752871D0782852
:102540007CD0BC4201D884F800B0641C059908789E
:10255000002868D0BC4200D82070641C81E0E806E6
:1025600005D507E0BC4201D884F80090641C761EB3
:10257000002EF7DC069810F8041B0690C8B2BC4287
:1025800000D82070641C04E0BC4201D884F800909C
:10259000641C761E002EF7DC63E0069808C80690DF
:1025A00003B941A31846FFF7EDFBB8F1000F02DDB8
:1025B000404500DD4046E90605D508E0BC4201D8AB
:1025C00084F80090641C3146761E8142F6DC0021BE
:1025D00006E0BC4201D81A782270641C5B1C491CBE
:1025E0008142F6DB04E0BC4201D884F80090641C10
:1025F0003146761E8142F6DC33E01BE014E0701CAD
:1026000002D1082645F001050295CDE9006806983B
:102610001023394604C806902046FEF79DFE044666
:102620001FE00FE00AE028E0BC4201D884F800B0C7
:10263000641C16E0082305E045F04005102301E086
:1026400045F002056C291BD068291DD0069804C8E6
:1026500006903946CDE9006820460295FEF77CFEDB
:1026600004460598401C05900598007800287FF4E2
:10267000E8AEBC4211D8207010E0491E0591F0E789
:10268000069804C80690E4E7069830F8041B069004
:102690008AB2A807DDD512B2DBE7387007B0A4EB29
:1026A0000A00BDE8F08F0000284E554C4C29000070
:1026B00000207047002070470020704700207047BE
:1026C00010B5FDF705FEFEF79DFFFFF703FBFFF7D3
:1026D000FBFBFFF7CBFBFEF7D3FEFFF701FCFFF799
:1026E00097FCFFF7DDFB002010BD024610B500206F
:1026F0006FF02F0407E04B1C136000EB800009789B
:1027000004EB4000084411680B78303B0A2BF2D3ED
:1027100010BD0000000001020304010203040607CB
:10272000080900000100020001000300010002008E
:10273000010004000100020001000300010002008A
:102740000100050001000200010003000100020079
:10275000010004000100020001000300010002006A
:102760000100060001000200010003000100020058
:10277000010004000100020001000300010002004A
:102780000100050001000200010003000100020039
:10279000010004000100020001000300010002002A
:1027A0000100070001000200010003000100020017
:1027B000010004000100020001000300010002000A
:1027C00001000500010002000100030001000200F9
:1027D00001000400010002000100030001000200EA
:1027E00001000600010002000100030001000200D8
:1027F00001000400010002000100030001000200CA
:1028000001000500010002000100030001000200B8
:1028100001000400010002000100030001000200A9
:102820000100303132333435363738396162636410
:1028300065660030313233343536373839414243FA
:1028400044454600BD260008B5260008B12600080C
:10285000B926000874280008000000249800000031
:10286000A41100080C290008980000245816000044
:10287000B41100080090D003000000000000000028
:102880000000000000000000000000000000000048
:102890000000000000000000000000000000000038
:1028A0002C0000242C00002478000000010000000F
:1028B0003C0000243C000024200000000400000034
:1028C0004C0000244C0000243000000009000000EF
:1028D0005C0000245C0000242C00000000000000CC
:1028E00000000000000000000000000000000000E8
:1028F00000000000000000000000000000000000D8
:0C290000000000000000000000000000CB
:040000050800029954
:00000001FF
